:020000040800F2
:10000000080F002029240008C5030008C7030008C2
:10001000C9030008CB030008CD030008000000005E
:10002000000000000000000000000000CF030008F6
:10003000D103000800000000D3030008D503000826
:1000400043240008432400084324000843240008F4
:1000500043240008432400084324000843240008E4
:1000600043240008432400084324000843240008D4
:1000700043240008432400084324000843240008C4
:1000800043240008432400084324000843240008B4
:1000900043240008432400084324000843240008A4
:1000A0004324000843240008432400084324000894
:1000B00043240008ED2500084324000843240008D9
:1000C0004324000843240008432400084324000874
:1000D000432400080155000861550008AF55000889
:1000E0004324000843240008432400084324000854
:1000F0004324000843240008432400084324000844
:100100004324000843240008432400084324000833
:10011000BF4C00084324000843240008432400087F
:100120004324000843240008432400084324000813
:10013000DFF80CD005F02CFF00480047450100080F
:10014000080F0020ADF5067D05F010F805F05AF80F
:1001500002F0B7F94FF4E134204605F097F868A0B3
:1001600005F088F9204605F0E5F86BA005F08FF959
:10017000204605F02EF96EA005F098F9204604F00F
:1001800031FD71A004F06BFE754805F013FF02F01D
:100190005DF904F053FA73492020086104F007FC6C
:1001A000714804F08FFC04F038FC4FF4966005F0C1
:1001B0000BF802F067F94FF6FF76304604F091FB3A
:1001C00003F0B3FA02F0EDFA03F0BAFA03F080FAA2
:1001D00005F079F904F03EFC04F0ACFE04F054FFA5
:1001E00041F61F4141F2873002F0A6F90DF503797F
:1001F000DFF878A1DFF878B14FF400774FF4784852
:1002000002F014FABAF80020BBF80000824221D0B4
:1002100058A183A805F0DEFE83A957A003F0A1FB37
:10022000BAF8001055A005F0C5FEBAF80040ABF8CA
:100230000040394683A805F0ECF9224654A183A872
:1002400005F0C8FE334642465A210020CDF8009002
:1002500003F0B4FF51480068B0F5E15FD0DBBAF8B5
:10026000002044A183A805F0B5FE83A942A003F0B5
:1002700078FBBAF8001041A005F09CFEBAF80040E7
:10028000ABF80040394683A805F0C3F9224640A1E7
:1002900083A805F09FFE334642465A210020CDF840
:1002A000009003F08BFF04F09DFE00250195029560
:1002B0003B4C39A101A8A27805F08CFE01A939A018
:1002C00003F04FFB01950295227833A101A805F0B8
:1002D00081FE01A935A003F044FB394603A805F0CF
:1002E00098F92378A27833A103A805F073FE03A838
:1002F0000090334642463221002003F05FFF7FE743
:10030000554152543120496E6974205375636365B9
:10031000737366756C0D0A00554152543220496E54
:100320006974205375636365737366756C0D0A0099
:10033000554152543320496E697420537563636587
:10034000737366756C0D0A00525334383520496E4C
:100350006974205375636365737366756C0D0A0069
:10036000609B000800100140F8700008A200002007
:10037000B8000020257500003438350050617273D4
:10038000656420446174613A2025750A000000000C
:1003900054656E73696F6E3A256400002800002072
:1003A000BA00002074656D700000000068756D690A
:1003B0000000000074656D703A25642C68756D69E5
:1003C0003A2564007047FEE7FEE7FEE7FEE7704768
:1003D000704770477047000010B500F0C7FE01205D
:1003E00000F02BFF212000F0F3FE0028FAD01020AF
:1003F00000F010FB022000F0FDFA002000F037FFB3
:10040000002000F042FF4FF4806000F037FF4FF40F
:100410006011002000F014FF012000F019FF3920C6
:1004200000F0D6FE0028FAD0022000F014FF00F001
:1004300019FF0828FBD10121BDE810401D2000F064
:10044000B8BF0CB50022019200925248016841F4F5
:10045000803101604FF4A063016801F40031009124
:100460000199491C0191009911B901999942F3D15F
:100470000168890302D50121009100E000920099F2
:10048000012930D144490A6842F010020A600A6822
:1004900022F003020A600A6842F002020A60416820
:1004A000416041684160416841F480614160416858
:1004B00021F47C114160416841F4E8114160016818
:1004C00041F08071016001688901FCD5416821F02B
:1004D00003014160416841F0020141604168C1F39C
:1004E00081010229FAD10CBDABE710B5294801689A
:1004F00041F0010101604168284A114041600168F2
:10050000274A11400160016821F48021016041689F
:1005100021F4FE0141604FF41F018160FFF7E4FF09
:1005200020494FF00060086010BD10B5194A5068AE
:1005300000F00C011C4B1D4800290ED004290ED0E0
:1005400008290ED003605168184AC1F30311121D27
:10055000515C0268CA40026010BD0360F3E70360AB
:10056000F1E7516801F47011536803F480330224F9
:1005700004EB914133B153689B0307D50C4B5943AE
:100580000160E0E70A4B59430160DCE7064B594341
:100590000160D8E700100240002002400000FFF890
:1005A000FFFFF6FE08ED00E000127A0000000020D8
:1005B00000093D002A4908432A490860704770B580
:1005C0000F23C27801260178002A1ED0254A12681E
:1005D00002F4E062C2F5E062120AC2F10404D34000
:1005E0004578A54082781A402A43120101F1E021A2
:1005F00081F80024007800F01F018E40400980003F
:1006000000F1E020C0F8006170BD01F01F008640DD
:100610004809800000F1E020C0F8806170BD124AF6
:10062000114001430F48001F016070470D4A121D21
:10063000002903D01168014311607047116881439C
:10064000116070474FF0E021042804D0086920F0C1
:10065000040008617047086940F0040008617047B1
:100660000000FA050CED00E080FFFF1F10B5DB492C
:1006700088420AD144150121204600F0B0FE2046F0
:10068000BDE81040002100F0AABED54988420AD139
:1006900004150121204600F0A2FE2046BDE81040CE
:1006A000002100F09CBECF4988420AD10121CC0331
:1006B000204600F094FE2046BDE81040002100F0E6
:1006C0008EBE10BD10B54268C74B1A400C790B683E
:1006D00042EA0422134343608268C44B1A40D1E9C2
:1006E000024323434C7942EA440213438360C26AC3
:1006F00022F47002097C491EC9B242EA0151C1626A
:1007000010BD00210160017141718160C160012152
:1007100001747047002904D0816841F001018160B3
:100720007047816821F0010181607047002904D081
:10073000816841F4807181607047816821F4807123
:1007400081607047C9B2002A03D042680A43426000
:10075000704742688A4342607047816841F00801EF
:1007600081607047014600208968090700D5012093
:100770007047816841F004018160704701460020A4
:100780008968490700D501207047002904D0816895
:1007900041F4A00181607047816821F4A00181606B
:1007A0007047014600208968490200D50120704742
:1007B000426822F46042491E42EA4131416070477A
:1007C000002904D0416841F40061416070474168EC
:1007D00021F400614160704770B5072609290AD9E4
:1007E000C568A1F10A0404EB4404A640B543A34044
:1007F0001D43C56007E0056901EB4104A640B54310
:10080000A3401D4305611F23072A09D2446B521ED2
:1008100002EB820293409C4391400C43446370BDC1
:100820000D2A09D2046BD21F02EB820293409C4333
:1008300091400C43046370BDC46A0D3A02EB82021E
:1008400093409C4391400C43C46270BD002904D086
:10085000816841F4801181607047816821F48011C2
:1008600081607047C06C80B270475C484C30006853
:100870007047002904D0416841F4806141607047AD
:10088000416821F4806141607047002904D04168CB
:1008900041F4805141607047416821F480514160CA
:1008A0007047826822F4E0420A4382607047002960
:1008B00004D0816841F4004181607047816821F46F
:1008C000004181607047002904D0816841F4021121
:1008D00081607047816821F4021181607047014690
:1008E00000208968890200D50120704770B507266D
:1008F00009290AD9C568A1F10A0404EB4404A640F9
:10090000B543A3401D43C56007E0056901EB410401
:10091000A640B543A3401D430561836BC3F3015457
:10092000121B921C02EB82021F249440A3439140AD
:100930000B43836370BD826B22F44012491E42EA6E
:1009400001518163704708B50090009808440090F9
:100950000098026008BD08B500900098084428304F
:1009600000900098006880B208BD4268204B1A4091
:100970000A4342607047416282627047426822F0D7
:100980001F020A434260704714490831002804D00E
:10099000086840F4000008607047086820F4000010
:1009A000086070470246002012680A4200D0012009
:1009B0007047C9430160704710B5024600200B0A1A
:1009C0005468C9B20C401168194202D0002C00D002
:1009D000012010BD090AC94301607047002401408D
:1009E00000280140003C0140FFFEF0FFFDF7F1FF51
:1009F000FFFD3FFFFE4A116801F03801014311601D
:100A00007047FB490A6822F008020A600A6802433C
:100A10000A607047F6490A6822F010020A600A6804
:100A200002430A607047F248F2494160F24941606E
:100A30007047EF48EF494160EF4941607047EC482B
:100A4000016941F0800101617047E948016941F0A5
:100A50008001016170470420E549CA68D20701D0CE
:100A600001207047CA68520701D502207047C96843
:100A7000C906FBD50320704700B50346FFF7EBFF1F
:100A800002E0FFF7E8FF5B1E012801D1002BF8D13F
:100A9000002B00D1052000BD70B505464FF430266F
:100AA0003046FFF7E9FF042811D1D14C206940F00E
:100AB000020020616561206940F0400020613046FD
:100AC000FFF7DAFF216941F6FD721140216170BD27
:100AD00030B54FF430252846FFF7CEFF042810D15B
:100AE000C34C206940F004002061206940F04000C0
:100AF00020612846FFF7C0FF216941F6FB721140D3
:100B0000216130BD00B50346FFF7A5FF02E0FFF706
:100B1000A2FF5B1E012801D1002BF8D1002B00D1D0
:100B2000052000BD30B54FF430252846FFF7EAFF19
:100B3000042810D1AE4C206940F0040020612069E7
:100B400040F0400020612846FFF7DCFF216941F6B4
:100B5000FB721140216130BD0020A549C969890798
:100B600000D50120704770B5A525FFF7F5FF00B14E
:100B700000254FF430263046FFF77EFF042818D1B9
:100B80009B4C9C48A0609C48A060206940F02000DD
:100B90002061206940F0400020613046FFF76CFF83
:100BA00041F6EF76042805D0052802D021693140AE
:100BB000216170BD206941F6DF7108402061206924
:100BC00040F0100020618D4805804FF40050FFF781
:100BD00053FF0528EDD021693140216170BD2DE919
:100BE000F84105460E46002000904FF40057384665
:100BF000FFF742FF04280FD17D4C206940F001002F
:100C000020612E80B8464046FFF736FFBF1E0428FD
:100C100004D0216939402161BDE8F881AD1C0095FF
:100C20000099300C08804046FFF726FF21693940C3
:100C30002161F1E7F0B506460D464FF400573846FE
:100C4000FFF71AFF04280CD1694C206940F001001D
:100C5000206135803846FFF70FFF2169BA1E114029
:100C60002161F0BDF0B505460E464FF400573846F9
:100C7000FFF702FF042813D15D4C5E48A0605E4878
:100C8000A060206940F0100020612E803846FFF7F8
:100C9000F3FE052804D0216941F6EF72114021616D
:100CA000F0BD2DE9F043C043C4B2C0F30725C0F343
:100CB0000746070E4FF400594846FFF7DDFE0428AB
:100CC0003CD1DFF82C814B49C8F808104A49C8F8D4
:100CD0000810D8F8101041F01001C8F81010FF2CBF
:100CE00005D04648083004804846FFF7C5FE042872
:100CF00007D1FF2D05D041480A3005804846FFF74F
:100D0000BBFE042807D1FF2E05D03C480C300680DE
:100D10004846FFF7B1FE042807D1FF2F05D037481A
:100D20000E3007804846FFF7A7FE052806D0D8F802
:100D3000101041F6EF721140C8F81010BDE8F083B2
:100D400070B505464FF430263046FFF795FE04286F
:100D500018D1274C2748A0602748A060206940F0A0
:100D600020002061206940F0400020613046FFF7FC
:100D700083FE41F6DF71042805D0052802D02269E0
:100D80000A40226170BD206908402061206940F05E
:100D900010002061194815B10021018001E0A52152
:100DA00001803046FFF768FE0528EBD0216941F647
:100DB000EF721140216170BD2DE9F04106460D46EC
:100DC00017460B4C0B48A0600B48A0604FF400582E
:100DD0004046FFF751FE04281DD1206940F0100065
:100DE00020613D433543054945F0F800891C07E083
:100DF0000020024023016745AB89EFCD00F8FF1FBB
:100E000008804046FFF738FE052804D0216941F6E6
:100E1000EF7211402161BDE8F0811E48C069800871
:100E200070471C48006A704700201A490968890603
:100E300000D501207047174A002903D011690143EA
:100E400011617047116981431161704701460020AB
:100E5000104A012904D0D2680A4200D0012070470C
:100E6000D169C907FBD0012070470A49C8607047A3
:100E700004200849CA68D20701D001207047CA6817
:100E8000520701D502207047C968C906FBD5032067
:100E9000704700000020024010B59C49884209D1EB
:100EA0000121042000F09BFA0021BDE8104004203D
:100EB00000F095BA9649884209D10121082000F036
:100EC0008EFA0021BDE81040082000F088BA914950
:100ED000884209D10121102000F081FA0021BDE8EB
:100EE0001040102000F07BBA8B49884209D10121C3
:100EF000202000F074FA0021BDE81040202000F00E
:100F00006EBA8649884209D10121402000F067FA73
:100F10000021BDE81040402000F061BA80498842BD
:100F200009D10121802000F05AFA0021BDE81040CB
:100F3000802000F054BA7B4988420AD184150121EF
:100F4000204600F04CFA2046BDE81040002100F099
:100F500046BA10BD10B50121084600F040FA002144
:100F6000BDE81040012000F03ABA2DE9F04100221E
:100F7000CC7804F00F03E40601D58C7823430C7879
:100F80004FF00F0714F0FF0F4FF0010C1CD0056855
:100F90000CFA02F40E882640A64211D1960007FAF8
:100FA00006F825EA080503FA06F848EA0505CE78AA
:100FB000282E02D0482E02D002E0446100E00461F5
:100FC000521C082AE4D305600A88FF2A1ED9456806
:100FD000002202F108060CFA06F40E882640A6420A
:100FE00010D1960007FA06F825EA080503FA06F874
:100FF00048EA0505CE78282E00D14461CE78482EE7
:1010000000D10461521C082AE3D34560BDE8F08199
:101010004FF6FF710180022181700421C170704779
:101020000246002092680A4200D001207047806882
:1010300080B2704702460020D2680A4200D00120E8
:101040007047C06880B27047016170474161704766
:10105000002A01D00161704741617047C16070474B
:1010600041F4803282618161826181698069704767
:1010700010B52D4B1A684FF68074224042EA0010DA
:101080000843186010BD2949C8617047F0B5264C67
:10109000002801DAE36900E06368C0F30346420D0B
:1010A000120185B2C0F301579540032F07D0C20249
:1010B0000CD50322B240934343F0706209E023F061
:1010C0007062636823F07063636002E0AB4343F0D7
:1010D000706201B12A43002801DAE261F0BD62606A
:1010E000F0BD10B58A07120F0F23934021F00304BF
:1010F0000D4921448C689C438C608B68904003436D
:101100008B6010BD0949DC31086070470008014060
:10111000000C014000100140001401400018014083
:10112000001C01400020014000000140000020425E
:101130000D49086070470C49486070470A4988604B
:10114000704709494AF6AA200860704706494CF6DC
:10115000CC400860704701460020034AD2680A422A
:1011600000D001207047000000300040B448016802
:1011700041F0010101604168B24A114041600168DB
:10118000B14A11400160016821F480210160416889
:1011900021F4FE0141604FF41F0181607047A849AE
:1011A0000A6822F480320A600A6822F480220A6007
:1011B000B0F5803F07D0B0F5802F03D1086840F428
:1011C000A02008607047086840F4803008607047CD
:1011D0000346002059099A4A01290AD002290AD057
:1011E000516A03F01F02012393400B4200D00120FB
:1011F00070471168F5E7116AF3E718B50020009011
:101200004FF4A0643120FFF7E3FF0099491C0091DF
:101210000099A14201D00028F4D03120FFF7D8FF77
:1012200008B1012018BD002018BD854A116821F0C1
:10123000F80141EAC00010607047844908607047B7
:101240007F4B5A6822F47C12084310435860704761
:101250007E49086670477A4A516821F003010143CC
:10126000516070477648406800F00C007047744A3F
:10127000516821F0F001014351607047704A516894
:1012800021F4E0610143516070476D4A516821F4D7
:10129000605141EAC00050607047694A002903D09C
:1012A000517A014351727047517A814351727047AC
:1012B0006649D83108607047614A516821F440415D
:1012C0000143516070475E49002220310A7001F8E5
:1012D0002029012805D0042802D1052081F820000A
:1012E0007047012081F82000704759490860704715
:1012F00053490A6A02430A627047554944390860F3
:10130000704710B54E4A516801F00C01514B00294D
:1013100027D0042927D0082927D00360516801F07D
:10132000F00109094C4B5C5C0168E1404160546884
:1013300004F4E064240A1C5D21FA04F48460546817
:1013400004F46054E40A1B5DD940C160526802F4A1
:101350004042920B404B1B1F9A5CB1FBF2F10161C2
:1013600010BD0360DAE70360D8E7516801F470113B
:10137000536803F48033022404EB914133B1536882
:101380009B0307D5354B59430160C7E7334B59439E
:101390000160C3E72F4B59430160BFE7284A00298A
:1013A00003D05169014351617047516981435161D3
:1013B0007047234A002903D0916901439161704726
:1013C00091698143916170471D4A002903D0D16919
:1013D0000143D1617047D1698143D1617047184A97
:1013E000002903D0D1680143D1607047D16881439F
:1013F000D1607047124A002903D01169014311617D
:101400007047116981431161704711494039086083
:1014100070470E49C86470470949C8717047084849
:10142000416A41F080714162704701460020044AE0
:1014300092680A4200D001207047014988727047C3
:10144000001002400000FFF8FFFFF6FE00004242DD
:101450008004424200127A001800002000093D007A
:1014600010B5FE4988420AD1C41401212046FFF775
:10147000B6FF2046BDE810400021FFF7B0BFB0F135
:10148000804F0CD0F649884213D101210220FFF78A
:10149000B1FF0021BDE810400220FFF7ABBF0121E2
:1014A0000846FFF7A7FF0021BDE810400120FFF725
:1014B000A1BFEC49884209D101210420FFF79AFF1E
:1014C0000021BDE810400420FFF794BFE6498842A0
:1014D00009D101210820FFF78DFF0021BDE8104050
:1014E0000820FFF787BFE149884209D10121102078
:1014F000FFF780FF0021BDE810401020FFF77ABF02
:10150000DB49884209D101212020FFF773FF002128
:10151000BDE810402020FFF76DBFD64988420AD1B0
:10152000441401212046FFF75AFF2046BDE8104031
:101530000021FFF754BFD04988420AD10121CC04D1
:101540002046FFF74CFF2046BDE810400021FFF782
:1015500046BFCA4988420AD101210C052046FFF73F
:101560003EFF2046BDE810400021FFF738BFC449C8
:1015700088420AD101214C052046FFF730FF204662
:10158000BDE810400021FFF72ABFBE49884209D1BB
:1015900001214020FFF72EFF0021BDE81040402030
:1015A000FFF728BFB849884209D101218020FFF701
:1015B00021FF0021BDE810408020FFF71BBFB34989
:1015C00088420AD1841501212046FFF713FF2046E7
:1015D000BDE810400021FFF70DBFAD4988420AD198
:1015E00001210C042046FFF7FAFE2046BDE810401A
:1015F0000021FFF7F4BEA74988420AD101214C041B
:101600002046FFF7ECFE2046BDE810400021FFF722
:10161000E6BEA14988420AD101218C042046FFF789
:10162000DEFE2046BDE810400021FFF7D8BE10BD09
:1016300030B50288894C8F4DA0420DD0A8420BD006
:10164000B0F1804F08D0864B984205D0854B984228
:1016500002D0854B984203D122F070034A881A4386
:10166000824B984206D0824B984203D022F44073BA
:10167000CA881A4302808A8882850A880285A04225
:101680000AD0A84208D0824A904205D0814A9042AE
:1016900002D0814A904201D1097A018601218182DA
:1016A00030BD30B5028C22F001020284028C8388A6
:1016B000048B24F0700424F003050C882C4322F0E2
:1016C00002020D8915434A882A43644DA8420BD073
:1016D000684DA84208D06E4DA84205D06D4DA84275
:1016E00002D06D4DA8420FD122F008054A892A4345
:1016F00022F004058A882A4323F4807323F40073BC
:101700008D891D43CB892B4383800483C9888186BF
:10171000028430BD70B5028C22F010020284028C6B
:101720008388048B24F4E04424F440760D884FF63B
:10173000FF7404EA0525354322F020020E8904EAED
:10174000061616434A8804EA02123243434EB04258
:1017500002D0484EB04217D122F080024E8904EAEE
:101760000616164326F040068A8804EA021232431F
:1017700023F4806323F400638E8904EA86061E4303
:10178000CB8904EA8303334383800583C9880187B7
:10179000028470BD70B5028C22F480720284028CC7
:1017A0008388848B24F0700424F003040D8825437F
:1017B00022F400720E894FF6FF7404EA06261643DF
:1017C0004A8804EA02223243244EB04202D0294E13
:1017D000B04217D122F400664A8904EA0222324359
:1017E00022F480668A8804EA0222324323F480537A
:1017F00023F400538E8904EA06161E43CB8904EABB
:101800000313334383808583C9888187028470BD35
:1018100070B5028C22F480520284058C8288838BFE
:1018200023F4E04323F440760C884FF6FF7303EA79
:101830000424344325F400550E8903EA06362E436A
:101840004D8803EA05353543044EB04202D0094EB7
:10185000B04226D122F480468A891FE0002C014044
:101860000004004000080040000C00400010004050
:101870000014004000340140004C01400050014081
:101880000054014000180040001C004000200040AF
:1018900000400140004401400048014003EA821238
:1018A000324382808483C988A0F84010058470BDCB
:1018B000828B22F440628283828B4FF6FF7303EAAD
:1018C00001210A4382837047F0B5048C24F48054CC
:1018D0000484868B048C4FF6FF7505EA013726F4E5
:1018E000734605EA0222324305EA03331343F74AFB
:1018F00090420ED0F64A90420BD0B0F1804F08D003
:10190000F44A904205D0F44A904202D0F34A904201
:1019100005D124F40051394341F4805104E024F40A
:1019200002420A4342F4805183830184F0BD828BDA
:1019300022F00C028283828B0A4382837047F0B5C7
:10194000048C24F480740484858B048C4FF6FF7718
:1019500007EA012625F0F30507EA031313432B4397
:10196000DA4A90420ED0DA4A90420BD0B0F1804F62
:1019700008D0D84A904205D0D74A904202D0D74AE0
:10198000904205D124F40071314341F4807104E0A8
:1019900024F420620A4342F4807183830184F0BD01
:1019A000028B22F440620283028B4FF6FF7303EA3C
:1019B00001210A4302837047F0B5048C24F010041F
:1019C0000484068B048C4FF6FF7505EA011726F494
:1019D000734605EA0333334305EA02221A43BB4B3D
:1019E00098420ED0BA4B98420BD0B0F1804F08D03D
:1019F000B84B984205D0B84B984202D0B74B9842AA
:101A000005D124F02001394341F0100104E024F015
:101A1000A0030B4343F0100102830184F0BD028B4D
:101A200022F00C020283028B0A430283704770B5D6
:101A3000048C24F001040484058B048C25F0F30548
:101A40004FF6FF7606EA031313432B439F4A904257
:101A50000ED09F4A90420BD0B0F1804F08D09D4AE3
:101A6000904205D09C4A904202D09C4A904205D1B7
:101A700024F002020A4342F0010104E024F00A02C9
:101A80000A4342F001010383018470BD70B505462D
:101A90000C468E48854209D08D48854206D0B5F166
:101AA000804F03D08B48854200D08B4820886188C6
:101AB000A288238958B1042811D0082817D02846B5
:101AC000FFF702FFE1882846BDE87040F0E62846AF
:101AD000FFF7ADFFE1882846BDE870409FE7284644
:101AE000FFF76AFFE1882846BDE8704058E72846BE
:101AF000FFF725FFE1882846BDE8704017E72DE98C
:101B0000F04107460C46002501266188002900D1D6
:101B10000225A288012A00D102262088238988B1C3
:101B20003846FFF749FFE1883846FFF739FF238938
:101B3000324629463846FFF77AFFE1883846BDE845
:101B4000F0416CE73846FFF772FFE1883846FFF74F
:101B500066FF2389324629463846FFF72DFFE18884
:101B60003846BDE8F0411BE710B50A884B88CC88A1
:101B70001A438B8823431A430B891A434B8989895B
:101B80001A430A43A0F8442010BD4FF6FF7181802C
:101B900000210180C18041800172704700210180D5
:101BA00041808180C180018141818181C1817047F3
:101BB00000210180418001228280C1800181704723
:101BC0000021018041808180C1800181418181812A
:101BD0007047002904D0018841F00101018070475D
:101BE000018821F0010101807047002905D030F8FB
:101BF000441F41F400410180704730F8441FC1F395
:101C00000E0101807047002A03D082890A43828135
:101C1000704782898A43828170478182704711436D
:101C2000A0F848107047002A03D082890A438281B5
:101C3000704782898A4382817047018921F00701B8
:101C400001817047028922F070020A4302817047C5
:101C500000B503461846FFF7F5FF188940F0070066
:101C6000188100BD70B50D4604461146602D0CD09C
:101C700001222046FFF7DBFE29462046FFF7E2FF60
:101C8000208940F00700208170BD01222046FFF727
:101C900093FEF1E730B50489E4B24FF6FF7505EA2B
:101CA000032313430B432343038130BD10B5044684
:101CB0002046FFF7EFFF208920F0070040F00700E3
:101CC00020F0700040F07000208110BD002C014019
:101CD000003401400004004000080040000C0040B7
:101CE00010B504462046FFF7D5FF208940F4804018
:101CF0002081EAE7018582827047028822F0700223
:101D00000A430280704770B50589048B068C25F064
:101D100007050D434FF6FC410C4040F201110C4306
:101D200026F022064FF6FF7101EA031111433143F9
:101D300005810483018470BD028B22F070020A4386
:101D400002837047028B22F4E0424FF6FF7303EAEE
:101D50000121114301837047828B22F070020A43F4
:101D600082837047828B22F4E0424FF6FF7303EACE
:101D70000121114381837047002904D0018841F07B
:101D8000800101807047018821F080010180704747
:101D9000002904D0818841F0040181807047818846
:101DA00021F0040181807047002904D0818841F02E
:101DB000080181807047818821F008018180704787
:101DC000002904D0818841F0010181807047818819
:101DD00021F0010181807047028B22F008020A4342
:101DE00002837047028B22F400624FF6FF7303EA0E
:101DF0000121114301837047828B22F008020A43BC
:101E000082837047828B22F400624FF6FF7303EAED
:101E10000121114381837047028B22F004020A439F
:101E200002837047028B22F480624FF6FF7303EA4D
:101E30000121114301837047828B22F004020A437F
:101E400082837047828B22F480624FF6FF7303EA2D
:101E50000121114381837047028B22F080020A43E3
:101E600002837047028BC2F30E024FF6FF7303EA40
:101E70000121114301837047828B22F080020A43C3
:101E800082837047828BC2F30E024FF6FF7303EA20
:101E90000121114381837047028C22F002020A4320
:101EA00002847047028C22F008020A4302847047C1
:101EB000028C22F020024FF6FF7303EA0111114356
:101EC00001847047028C22F080024FF6FF7303EA10
:101ED0000111114301847047028C22F400724FF605
:101EE000FF7303EA0121114301847047028C22F43D
:101EF00000624FF6FF7303EA01211143018470472A
:101F0000028C22F400524FF6FF7303EA01311143B1
:101F10000184704710B501238B40048C9C430484DA
:101F2000038C8A4013430384CFE610B504238B400F
:101F3000048C9C430484038C8A4013430384C4E6CA
:101F400030B500F1180301248C40058CA5430584AD
:101F5000002911D008290FD0091FC1F34E001844E1
:101F6000016821F4E041016001684FF6FF7303EA64
:101F700002221143016030BD03EB5100016821F0E2
:101F80007001016001681143016030BD002904D077
:101F9000018841F0020101807047018821F00201AF
:101FA00001807047002904D0018841F004010180BC
:101FB0007047018821F0040101807047002904D096
:101FC000818841F0800181807047818821F0800103
:101FD00081807047028822F00802028002880A434A
:101FE00002807047828822F07002828082880A43D1
:101FF00082807047028922F00702028102890A4327
:1020000002817047028922F08002028102890A431C
:10201000028170478184704781857047818670474F
:102020000187704781877047A0F840107047028889
:1020300022F44072028002880A4302807047808E38
:102040007047008F7047808F7047B0F8400070472E
:10205000808C7047008D704702460020128A0A4229
:1020600000D001207047C94301827047024600201A
:10207000138A0B4092890A40002B02D0002A00D01C
:1020800001207047C94301827047000010B5E14943
:1020900088420AD101218C032046FFF7A0F920468F
:1020A000BDE810400021FFF79AB9DB4988420AD108
:1020B00001214C042046FFF79DF92046BDE8104061
:1020C0000021FFF797B9D54988420AD101218C0434
:1020D0002046FFF78FF92046BDE810400021FFF7AA
:1020E00089B9CF4988420AD10121CC042046FFF7A3
:1020F00081F92046BDE810400021FFF77BB9C949AE
:1021000088420AD101210C052046FFF773F92046C9
:10211000BDE810400021FFF76DB910BD30B585B0A6
:1021200004460D46208A4CF6FF710840E9880143B9
:102130002182A0894EF6F3110840A9882A8911430B
:102140006A8902431143A181A08A4FF6FF410840EA
:10215000A9890143A1826846FFF7D3F8AD488442BC
:1021600001D1039800E00298A189090408D500EB89
:10217000C00101EB001029684900B0FBF1F007E055
:1021800000EBC00101EB001029688900B0FBF1F001
:102190006422B0FBF2F109010B096FF018056B43E3
:1021A00000EB8300A3891D044FF0320307D503EB36
:1021B000C000B0FBF2F000F00700084306E003EBBC
:1021C0000010B0FBF2F000F00F000843208105B0D2
:1021D00030BD4FF41651016000218180C180018122
:1021E0000C2242818181704710B5038A4FF2FF02B1
:1021F00013400A884C8822438C88C9880C432243A8
:102200001A43028210BD0021018041808180C1807B
:102210007047002904D0818941F4005181817047C1
:10222000818921F400518181704710B540F66A130D
:10223000C1F3421301F01F040121A140012B07D07B
:10224000022B07D014303AB102680A43026010BD75
:102250000C30F8E71030F6E702688A43026010BDE0
:10226000002A03D0828A0A4382827047828A8A4384
:1022700082827047028A22F00F020282028A0A4397
:1022800002827047828922F40062828182890A4335
:1022900082817047002904D0818941F00201818147
:1022A0007047818921F0020181817047028A22F002
:1022B00020020282028A0A4302827047002904D067
:1022C000018A41F4804101827047018A21F48041F2
:1022D00001827047C1F30801818070478088C0F394
:1022E00008007047818941F0010181817047028BAC
:1022F000D2B20283028B42EA012101837047028B32
:1023000002F47F420283028B0A4302837047002952
:1023100004D0818A41F0200181827047818A21F0B6
:10232000200181827047002904D0818A41F0100188
:1023300081827047818A21F01001818270470029D3
:1023400004D0818A41F0080181827047818A21F09E
:10235000080181827047002904D0818941F400413D
:10236000818170478189C1F30E0181817047002905
:1023700004D0818A41F4006181827047818A21F40E
:10238000006181827047828A22F004028282828AFE
:102390000A4382827047002904D0818A41F00201F9
:1023A00081827047818A21F0020181827047024652
:1023B000002012880A4200D0012070478A05C943D4
:1023C0000180704770B5002440F66A12C1F34213D1
:1023D00001F01F05012606FA05F2012B0CD0022B95
:1023E0000DD0838A1340090A8E40008830400BB11B
:1023F00000B10124204670BD83891340F3E7038AAE
:102400001340F0E740F66A120A0A01219140C943DD
:1024100001807047003801400044004000480040FF
:10242000004C0040005000400648804706480047E6
:10243000FEE7FEE7FEE7FEE7FEE7FEE7FEE7FEE774
:10244000FEE7FEE7EB0400083101000838B5012182
:102450000920FEF7AEFF01212A48FEF717FE3820BB
:10246000ADF8000010208DF8030003208DF8020065
:10247000254C69462046FEF778FD38212046FEF7B8
:10248000E3FD38BD70B5204C20212046FEF7DEFD6F
:102490004FF49675284602F097FE10212046FEF76D
:1024A000D5FD284602F090FE08212046FEF7CEFD1D
:1024B000284602F089FE2046BDE870403821FEF72C
:1024C000C3BD38B501210420FEF773FF4FF48054DB
:1024D000ADF8004010208DF8030003208DF80200B5
:1024E0000A4D69462846FEF740FD21462846FEF77C
:1024F000ABFD4FF47A7002F067FE21462846FEF7E6
:10250000A5FD38BD00023000000C0140000801406C
:1025100070B505460C4645F25550FEF709FE2846B3
:10252000FEF709FE2046FEF709FEFEF70AFEBDE8AB
:102530007040FEF70BBE70477FB504460D46012183
:102540000220FEF741FFADF80840ADF8045000242A
:10255000ADF80A40ADF80640304D01A92846FFF716
:1025600067F8012211462846FFF74DFB1D218DF823
:1025700000108DF8014003218DF8021001218DF823
:1025800003106846FEF71BF801212846FFF721FBE0
:102590007FBD7FB504460D4601210420FEF714FFE0
:1025A000ADF80840ADF804500020ADF80A00ADF8D1
:1025B00006001B4C01A92046FFF73AF801221146FC
:1025C0002046FFF720FB1E218DF8001003218DF817
:1025D00001108DF8021001218DF803106846FDF7F7
:1025E000EEFF01212046FFF7F4FA7FBD10B50B4C3A
:1025F00001212046FFF73AFD0A490968884203D0C5
:1026000001212046FFF73EFD07490868401C08608D
:10261000B0F5E15F01DD0020086010BD000400405E
:102620000008004098012242280000202DE9F84FC0
:10263000FAA1FD4803F004F8DFF8F083C8F80400BD
:10264000F94DFB4E00244FF6FF794FF4784A4FF4D2
:10265000007B88B1F7A000904B4652460A2110201B
:1026600001F0ACFDC6F89441C5F80442594628462D
:10267000BDE8F84F02F0CDBFF2A1EB4802F0E0FF59
:10268000C8F80400012788B1F1A000904B465246DB
:102690000A21102001F092FDC6F89471C5F8044299
:1026A0005946BDE8F84FE04802F0B3BFECA1DE4860
:1026B00002F0C6FFC8F8040088B1ECA000904B46B9
:1026C00052460A21102001F079FDC6F89041C5F864
:1026D00004425946BDE8F84FD34802F09ABFE7A13B
:1026E000D14802F0ADFFC8F8040088B1E6A0009020
:1026F0004B4652460A21102001F060FDC6F8907149
:10270000C5F804425946BDE8F84FC74802F081BFFA
:10271000E1A1C54802F094FFC8F8040088B1E1A027
:1027200000904B4652460A21102001F047FDC6F8A2
:102730008C41C5F804425946BDE8F84FBA4802F04A
:1027400068BFDCA1B84802F07BFFC8F8040000288D
:1027500011D0DBA000904B4652460A21102001F018
:102760002DFDC6F88C71C5F804425946BDE8F84FF6
:10277000AD4802F04EBFBDE8F88F10B5AA4803F08F
:1027800019FCFFF753FF0A2002F01EFDA6490020A6
:10279000C1F80402BDE810404FF40071A24802F0F5
:1027A00038BFF8B5CAA003F005FCCEA002F06FFE5A
:1027B0004FF49675284602F007FD9B4803F0FAFB9C
:1027C000CAA1994802F03CFF984C6060FFF7D5FF22
:1027D0004FF6FF764FF4784717E0C5A000903346D8
:1027E0003A460A21102001F0E9FCC5A003F0E2FB03
:1027F000FFF7C3FFBBA002F04AFE284602F0E4FC4C
:10280000BAA1894802F01CFF606060680028E4D02B
:10281000C2A0009033463A460A21102001F0CEFCB7
:10282000C2A003F0C7FBC9A002F031FE284602F0A7
:10283000CBFCFFF7A2FFC7A002F029FE284602F05A
:10284000C3FCFFF79AFFC6A002F021FE284602F063
:10285000BBFCFFF792FFC5A002F019FE284602F06C
:10286000B3FCC5A1704802F0EBFE60600CE0FFF71E
:1028700084FFBEA002F00BFE284602F0A5FCBEA11C
:10288000694802F0DDFE606060680028EFD06649AC
:10289000BAA0083103F08EFBFFF76FFFBCA00090D9
:1028A00033463A460A21102001F088FCBCA002F011
:1028B000EEFD284602F088FCBCA15B4802F0C0FE99
:1028C0006060FFF75AFF0CE0FFF757FFB4A002F07B
:1028D000DEFD284602F078FCB4A1534802F0B0FEB9
:1028E000606060680028EFD0B3A0009033463A469D
:1028F0000A21102001F062FCFFF73FFFB2A002F0B6
:10290000C6FD284602F060FCB2A1474802F098FEDE
:102910006060002806D0BDE8F8404349AFA00E3102
:1029200003F048BBF8BD08B5FFF727FF4021B548C5
:1029300002F06FFEB4A002F0AAFD642002F044FC95
:10294000B4A1394802F07CFE3849486088B100F1F2
:1029500008010F22AB4802F085FEAA4800904FF60E
:10296000FF7340F20C524621002001F027FCA548DD
:1029700008BDFFF702FF002008BD70B50546FFF750
:10298000FCFE8021A64802F044FEA6A002F07FFDD6
:102990004FF4967002F018FCA6A1234802F050FEF6
:1029A000224C6060002838D000F1150116229C48A6
:1029B00002F058FE9A49A2A003F0FCFA9148402187
:1029C000403802F026FE61688E48022215314038F8
:1029D00002F048FE8B48A1A1403802F025FE89484C
:1029E000403802F04BFE874E6168403E3044022280
:1029F000173102F037FE304602F040FE6168304485
:102A000004221A3102F02EFE4021A6F1400002F00D
:102A100000FE61680322203122E145E12262746EEA
:102A200031223A3100000000F4060020300000207E
:102A3000008021425455524E204F4E204C45443187
:102A4000000000002262746E31223A300000000063
:102A50005455524E4F4646204C454431000000002C
:102A60002262746E32223A31000000005455524EF8
:102A7000204F4E204C454432000000002262746E0C
:102A800032223A30000000005455524E4F46462044
:102A90004C454432000000002262746E33223A3109
:102AA000000000005455524E204F4E204C454433F8
:102AB000000000002262746E33223A3000000000F1
:102AC0005455524E4F4646204C45443300000000BA
:102AD000737461727420696E6974204543323030BA
:102AE000550D0A00415445310D0A00004F4B0000BE
:102AF000434F4E4E4543542034472E2E00000000D5
:102B0000B5A5C6ACBBFAD5FDD4DAC1ACBDD3C4A360
:102B1000BFE92E2E2E2E2E2E0D0A0000434F4E4EB4
:102B2000454354205B4F4B5D000000002A2A2A2AAF
:102B3000B5A5C6ACBBFABACDC4A3BFE9C1ACBDD381
:102B4000B3C9B9A62A2A2A2A2A0D0A004154490DD6
:102B50000A00000041542B51434349440D0A000030
:102B600041542B4347534E0D0A00000041542B4360
:102B7000494D490D0A00000034363000CED2B5C4AC
:102B8000BFA8BAC5CAC7203A202573200D0A000085
:102B900053494D43415244205B4F4B5D00000000C0
:102BA00041542B43474154543F0D0A002B434741A6
:102BB00054543A203100000052454749535445527D
:102BC0005B4F4B5D0000000041542B4353510D0AF5
:102BD000000000002B4353513A000000D0C5BAC595
:102BE000D6CAC1BFCAC73A257320D7A2D2E2A3BAB8
:102BF000D0C5BAC5D7EEB4F3D6B5CAC73331200DA8
:102C00000A000000CC03002041542B4347534E3DA3
:102C1000310D0A002B4347534E3A2022000000009A
:102C2000CC02002041542B514750534C4F433D3070
:102C30000D0A00002B514750534C4F433A000000FF
:102C4000C4A3BFE9B6A8CEBBBAC3C1CBBEADCEB399
:102C5000B6C8CAC72025730D0A0000002E00000068
:102C6000A6F1400002F0FEFCAFF21001A6F1400018
:102C700002F0DAFCA6F1400002F000FD6168403E7F
:102C800030440222233102F0EDFC304602F0F6FC23
:102C9000616830440422263102F0E4FCFFF76DFD48
:102CA000012D03D0022D03D0002070BDFE4870BD61
:102CB000FD48403870BD2DE9F05FFB4E803600289E
:102CC0007DD0002031188A79CA76401CC0B2032812
:102CD000F8D3032031188A79CA77401CC0B20A2879
:102CE000F8D31B36707B303802F036FFDFF8BCB308
:102CF000594602F054FD0446307B303802F02CFF78
:102D0000EB4902F04CFD0546F07A303802F024FF22
:102D1000E84902F044FD8046B07A303802F01CFFEA
:102D2000DFF894A3514602F03AFD8146F079317AFA
:102D3000303800EB80006FF02F0707EB40000844AD
:102D400002F00AFF494602F0A0FC414602F09DFC59
:102D5000294602F09AFC214602F097FC02F05BFF44
:102D6000DFF858830022434602F070FE04463078B4
:102D70000D463038B17800EBC00202EB001001EBD9
:102D800080017078303800EB800007EB4000084489
:102D900002F0EBFE22462B4602F03FFD02F04EFF12
:102DA000C6F831001B3E002031184A7CCA77401C0F
:102DB000C0B20228F8D3022031184A7C00E07AE041
:102DC00081F82820401CC0B20928F5D32036307C79
:102DD000303802F0C1FE594602F0E1FC0446F07BB7
:102DE000303802F0B9FEB24902F0D9FC0546B07B9A
:102DF000303802F0B1FEAF4902F0D1FC8146707B61
:102E0000303802F0A9FE514602F0C9FC8346B07A80
:102E1000F17A303800EB800007EB4000084402F004
:102E20009BFE594602F031FC494602F02EFC294631
:102E300002F02BFC214602F028FC02F0ECFE0022FE
:102E4000434602F003FE044630780D46303802F067
:102E500083FE074616F8010C303802F07DFE51461D
:102E600002F06BFC394602F010FC02F0D4FE224660
:102E70002B4602F0D2FC02F0E1FE306302F0CBFE02
:102E8000024689480B468EA1D43003F0A3F8F06ABD
:102E900002F0C1FE02460B4689A18A4803F09AF867
:102EA000884989A0403903F085F8BDE8F05F85497D
:102EB00089A003F07FB80020F0643065BDE8F09F82
:102EC00070B50024784888A1C03802F0B9FB874E5D
:102ED0007060754D803510B301192A1989785174C5
:102EE000641C092CF8DB704881A1C03802F0A8FBF3
:102EF000706038B100228118AB1889789971521C22
:102F00000A2AF8DB6F497BA0833903F053F8A91D27
:102F10007EA003F04FF8012085F8490002E0002070
:102F200085F8490095F84900FFF7C5FEFFF725FC35
:102F3000002070BDF8B50546FFF71FFC5A488021F8
:102F4000C03802F066FB78A002F0A1FA642002F01B
:102F50003BF97BA17C4802F073FB644C6060002667
:102F600026602FE0FFF709FC6FA002F090FA1E2008
:102F700002F02AF972A1744802F062FB60602168D5
:102F8000491C2160C8291DDD2660704D4FF4805416
:102F900021462846FEF758F84FF47A7002F014F9EB
:102FA00021462846FEF752F84FF4967002F00CF9CD
:102FB00067480168674A01F4E06111430160BFF3AB
:102FC0004F8FFEE760680028CCD0374862A1C03838
:102FD000626802F0FFFF61A04FF6FF760090334673
:102FE0004FF4FC620A21102001F0E8F8FFF7C5FB5E
:102FF0002D4C5020C03CA07021465CA002F0DAFFAE
:10300000607C412827D1402104F5CA7002F001FB01
:1030100040212C4802F0FDFAFFF752FF04F5CA7078
:10302000009033461F225A21002001F0C7F825489E
:10303000009033461F226E21002001F0BFF855A0FA
:10304000009033461F220A21102001F0B7F8012D0D
:1030500003D0022D04D00020F8BD1A484038F8BD36
:103060001848F8BD2DE9F04F89B00F4602F0D3FDA6
:10307000CDE9061000224B4B02F070FC1B4E0446BB
:103080000D46C6E90201384602F0C5FDCDE904103F
:103090000022454B02F062FCC6E9040120462946A5
:1030A00002F081FD002881E08C03002000401C46D6
:1030B00000007A440000C8420000204100004E4059
:1030C00025660000A00400206C61745374724146B0
:1030D0002C2573200D0A00006C6F6E5374724146EC
:1030E0002C2573200D0A0000412C00003000002028
:1030F0004E2C00006C6174646174612E4C617469C3
:1031000074756465202C2573200D0A006C6174644D
:103110006174612E6C6F6E676974756465202C250F
:1031200073200D0A0000000041542B5147505347B3
:103130004E4D45413D22524D43220D0A00000000F4
:1031400024474E524D430000F40600200008014081
:103150000CED00E00400FA052573000047505320F1
:10316000494E464F205B2E2E5D0000003D3D3D3D0B
:103170003D3D3D3D3D3D3D3D4745544750524D430E
:103180003D3D3D3D3D3D3D3D3D3D3D3D3D3D0D0AD2
:103190002573000047505320494E464F205B4F4B4C
:1031A0005D00000000405A400080414000DA40428B
:1031B00002F0DBFC03F07AFFFE4CFF4D22462B466B
:1031C00002F0D2FBCDE90201FC4822462B46D0E9B1
:1031D00002452046294602F0C7FBF84B8B46824643
:1031E000D3E9042316461F4602F0BEFB80468946FB
:1031F0005046594622462B4602F0B6FB82468B4685
:1032000001223046394602F090FC06460F46002265
:10321000EB4B2046294602F000FB32463B4602F0CB
:10322000FCFA52465B4602F0F8FA42464B4602F080
:10323000F4FADDE9022302F0F0FAE04AC2E90601FD
:1032400001222046294602F070FCDE4FDFF8788329
:103250003A46434602F088FB03F0D8FEDB4E0022DC
:10326000334602F081FB0D46D44904460022D1E9E1
:103270000201D74B02F078FB3A46434602F074FB5A
:1032800003F0C4FE0022334602F06EFB22462B46BA
:1032900002F0C3FA012202F048FCDFF838B3002242
:1032A0005B4602F0D3FBC54AD2E906341A462346F0
:1032B00002F0B3FAC14AC2E90601C04900225B46E6
:1032C000D1E9020102F0C2FB3A46434602F04CFB50
:1032D00003F09CFE0022C04B02F046FB0D46B749AE
:1032E00004463A46D1E90201434602F03DFB03F0B1
:1032F0008DFE0022334602F037FB22462B4602F0B9
:103300008CFA012202F011FC00225B4602F09EFBC7
:10331000AA4AD2E906341A46234602F07EFAA74AA0
:10332000C2E90601A5490022AC4BD1E9020102F035
:103330008DFB3A46434602F017FB03F067FE00227E
:103340009F4B02F011FB0D469C4904460022D1E937
:103350000201A34B02F07AFB3A46434602F004FB1B
:1033600003F054FE00229F4B02F0FEFA22462B4649
:1033700002F053FA012202F0D8FB00225B4602F071
:1033800065FB8E4BD3E9062302F047FA8B4AC2E96C
:1033900006011146D1E9020102F005FC002800DA1D
:1033A000404202F0E2FB03F081FE824E8E4F324635
:1033B0003B4602F0D9FADFF80482CDE90201324639
:1033C000D8E902017C4B81468A4602F0CDFAD8E961
:1033D000042514462B4602F0C7FACDE90001324617
:1033E0003B462046294602F0BFFA22462B4602F011
:1033F000BBFA06460F4600225B462046294602F0ED
:10340000B3FA04460D4601224846514602F08DFBB0
:103410008A4681460022754B02F0FFF922462B4670
:1034200002F0FBF932463B4602F0F7F9DDE90023F2
:1034300002F0F3F9DDE9022302F0EFF9C8E908012F
:103440004846604FDFF8809151463A464B4602F0BD
:103450008BFA03F0DBFD5D4E0022334602F084FA66
:1034600004460D46D8E902010022594B02F07CFACD
:103470003A464B4602F078FA03F0C8FD0022334684
:1034800002F072FA22462B4602F0C7F9012202F03E
:103490004CFB00225B4602F0D9FAD8E9082302F07F
:1034A000BCF9C8E90801D8E9040100225B4602F032
:1034B000CDFA3A464B4602F057FA03F0A7FD002238
:1034C000454B02F051FA04460D46D8E904013A464C
:1034D0004B4602F049FA03F099FD0022334602F010
:1034E00043FA22462B4602F098F9012202F01DFB16
:1034F00000225B4602F0AAFAD8E9082302F08DF90F
:10350000C8E90801D8E904013A464B4602F02CFA12
:103510000022324B02F09AFA03F078FD0022344B7D
:1035200002F022FA04460D46D8E9040100222C4B91
:1035300002F08CFA3A464B4602F016FA03F066FDAA
:1035400000222C4B02F010FA22462B4602F065F9BD
:10355000012202F0EAFA00225B4602F077FAD8E98B
:10356000082302F05AF9C8E90801C8E90A01D8E9B4
:103570000601C8E90C01204EDDE9041000223346A3
:1035800002F064FA3A464B4602F0EEF9C8E90E0141
:1035900003F03CFD04460D46184A194B29462046C7
:1035A00002F0E2F92B46224602F0DEF90022154B2A
:1035B0002AE000009A9999999999B93F3000002022
:1035C00000C07240182D4454FB21094000003440D3
:1035D00000001840000008400000444000003E4049
:1035E0000000284000C062409999C93F000059C0BE
:1035F0000000744000006440008066400BEF80AF24
:103600008F6A7B3F0000F03F02F0ABF9C8E9100180
:1036100003F04CFDC8E91201D8E9102302F0A4F927
:1036200002460B46FC48FD4902F010FA3A464B466A
:1036300002F09AF904460D46D8E90A010022334601
:1036400002F092F922462B4602F000FAC8E90A017C
:10365000D8E90E0103F08CFCD8E9122304460D468C
:10366000F003EF4902F0F2F922462B4602F07CF912
:103670003A464B4602F078F904460D46D8E90C016B
:103680000022334602F070F922462B4602F0DEF9A2
:1036900004460D46C8E90C01DDE90410D8E90A2307
:1036A00002F0BBF806460F46C8E91401DDE9061032
:1036B00022462B4602F0B1F8C8E91601CDE9000117
:1036C00032463B46D7A002F075FC09B0BDE8F08F4A
:1036D00038B5FFF752F8D6A001F0D9FE4FF4967531
:1036E000284601F071FDAFF6FC31D44801F0A8FF87
:1036F000D34C606008E0284601F066FDAFF6144147
:10370000CE4801F09DFF606060680028F3D0CDA036
:1037100000904FF6FF734FF478420A21102000F01A
:103720004DFDBDE83840FFF728B810B5C9A001F03D
:10373000AEFE642001F048FDBDE81040FFF71DB863
:103740002DE9F843C7A002F035FCCEA001F09FFEA2
:103750004FF49678404601F037FDAFF67041B74818
:1037600001F06EFFB64C6060FFF707F80DE0FFF761
:1037700004F8C4A001F08BFE404601F025FDAFF631
:103780009441AE4801F05CFF606060680028EED0B4
:10379000FEF7F3FFC3A001F07AFE404601F014FDEE
:1037A000AFF6B841A54801F04BFF6060FEF7E5FFBA
:1037B0000DE0FEF7E2FFBBA001F069FE404601F01C
:1037C00003FDAFF6D8419D4801F03AFF60606068A4
:1037D0000028EED0FEF7D1FF4FF400794946B848F3
:1037E00001F017FFB7A3B9A2C4A1B54802F0F2FBDC
:1037F000B34801F04CFE404601F0E6FCAFF6145130
:103800008E4801F01DFF60600025256010E02068F3
:10381000401C2060AFF62C51884801F011FF606019
:10382000642001F0D1FC2068642801DD256002E0FD
:1038300060680028EBD0FEF7A0FFB6A04FF6FF7639
:103840004FF47847009033463A460A21102000F0A2
:10385000B5FC49469A4801F0DCFEB2480090B2A39C
:10386000B64AB7A1964802F0B5FB954801F00FFEA5
:10387000404601F0A9FCBAA1704801F0E1FE606089
:1038800025601EE02068401C2060B5A16B4801F057
:10389000D7FE6060009033463A463221002000F0A7
:1038A0008DFC642001F090FC2068642809DDB0A044
:1038B000009033463A460A21102000F07FFC256034
:1038C00002E060680028DDD0FEF757FFACA002F0F0
:1038D00071FBAFA0009033463A460A21102000F059
:1038E0006DFC4946764801F094FEADA2B9A174483A
:1038F00002F070FB724801F0CAFD404601F064FC22
:10390000BAA14E4801F09CFE6060256017E0206877
:10391000401C2060B5A1494801F092FE60601E2065
:1039200001F052FC2068642809DDB5A00090334600
:103930003A4632210A2000F041FC256002E060682E
:103940000028E4D0B2A0009033463A4632210A2043
:1039500000F034FCFEF711FFBDE8F843B0A002F020
:1039600029BB70B5B4B004460D46C82102A801F0C9
:1039700050FEAFA34FF6FF76009333464FF47842E4
:103980000A21102000F01AFCC82102A801F041FE13
:103990002B462246AA4902A802F01CFB02A801F00D
:1039A0006DFE04464FF40071454801F032FE234697
:1039B000A4A2B1A1424802F00DFB414801F067FD0D
:1039C000642001F001FCB4A11C4801F039FE1C4C3C
:1039D0006060002525600FE02068401C2060AEA1DB
:1039E000164801F02DFE60601E2001F0EDFB2068FE
:1039F000642801DD256002E060680028ECD0FEF755
:103A0000BCFE02A9A5A002F0D5FA02A801F03FFD74
:103A1000642001F0D9FB4DE1C155E32D102B584135
:103A2000C1545841256C662C256C660D0A000000B7
:103A300041542B514750533D310D0A00F4060020EC
:103A40003000002053544152544750535B4F4B5D5C
:103A50000000000041542B514D54444953433D3024
:103A60000D0A00000D0ABFAAC6F4D3EB4F6E656EB7
:103A700065742053747564696FB5C4C1ACBDD30D52
:103A80000A00000041542B514D544346473D2272D9
:103A90006563762F6D6F6465222C302C302C310DD0
:103AA0000A00000041542B514D544346473D2276B5
:103AB000657273696F6E222C302C340D0A00000081
:103AC000CC0000203138383300000000696F742DBD
:103AD00030367A303061356E636C76613562382EFF
:103AE0006D7174742E696F746875622E616C69797A
:103AF000756E63732E636F6D0000000041542B518F
:103B00004D544F50454E3D302C222573222C2573A9
:103B10000D0A000020204D51545420205B4F4B5D76
:103B200000000000C89B0008454332303055266B2A
:103B3000323630326B7A41626A4200000C9C0008D7
:103B400041542B514D54434F4E4E3D302C22257342
:103B5000222C222573222C222573220D0A0000001C
:103B60002B514D54434F4E4E3A20302C302C3000C8
:103B700020204D51545420205B4E4F5D000000002A
:103B80000D0AC1ACBDD3B3C9B9A60D0A000000002F
:103B9000414C49434F4E4E4543544F4B00000000AB
:103BA0002F7379732F6B323630326B7A41626A42EF
:103BB0002F4543323030552F7468696E672F736517
:103BC00072766963652F70726F70657274792F7386
:103BD0006574000041542B514D545355423D302CD7
:103BE000312C222573222C320D0A00002B514D540A
:103BF0005355423A20302C312C302C31000000003B
:103C0000737562736372696265204E4F0000000035
:103C1000737562736372696265204F4B0000000028
:103C20000D0AB6A9D4C4B3C9B9A60D0A0000000094
:103C300053656E6420444154415B2E2E5D000000AC
:103C40005C9C00082F7379732F6B323630326B7A9D
:103C500041626A422F4543323030552F7468696E95
:103C6000672F6576656E742F70726F7065727479E8
:103C70002F706F737400000041542B514D545055F8
:103C80004245583D302C302C302C302C22257322CC
:103C90002C25640D0A0000003E0000000D0AB7A2AA
:103CA000CBCDB5C44A534F4ECAFDBEDD3A25730D88
:103CB0000A00000009A10E4801F0C2FC606010B1CA
:103CC0000CA002F077F910A0009033461F220A21C1
:103CD000102000F073FA34B070BD00002B514D5429
:103CE00050554245583A20302C302C30000000000E
:103CF000F40600200D0ACAFDBEDDB7A2CBCDB3C9C4
:103D0000B9A60D0A0000000053656E6420444154BA
:103D1000415B4F4B5D000000C0F34511C20AC00279
:103D200000EB4110104480B270472DE9FF5F06465A
:103D30000F46002415465042032101EB400858E08D
:103D400007EB050906EB040A1FFA89F11FFA8AF04E
:103D5000039A00F0B2FD1FFA89F1A6EB04091FFADD
:103D600089F0039A00F0A9FDA7EB050B1FFA8BF170
:103D70001FFA8AF0039A00F0A0FD1FFA8BF11FFAD8
:103D800089F0039A00F099FD07EB040906EB050A98
:103D90001FFA89F11FFA8AF0039A00F08EFD1FFACC
:103DA00089F1A6EB05091FFA89F0039A00F085FD59
:103DB000A7EB040B1FFA8BF11FFA8AF0039A00F0AD
:103DC0007CFD1FFA8BF11FFA89F0039A00F075FD54
:103DD000B8F1000F04DA08EB840808F1060806E0E1
:103DE000601B08EB800808F10A086D1EADB2641C68
:103DF000A4B2AC42A4D3AC4242D107EB050906EB16
:103E000004081FFA89F11FFA88F0039A00F055FDA3
:103E10001FFA89F11FFA88F0039A00F04EFDA7EB14
:103E200005091FFA89F11FFA88F0039A00F045FD91
:103E3000301B1FFA89F180B2039A00F03EFD07EBB8
:103E4000040906EB05081FFA89F11FFA88F0039AA6
:103E500000F033FD751B1FFA89F1A8B2039A00F038
:103E60002CFD3C1BA1B21FFA88F0039A00F025FD3F
:103E7000039A04B0A1B2A8B2BDE8F05F00F01DBD86
:103E8000BDE8FF9F2DE9F84F06460F4614469846B9
:103E90003946304600F00EFDA51BA8EB070B4FF08E
:103EA000FF39002D02DB4FF0010801E0C8466D42EA
:103EB000BBF1000F02DB4FF0010901E0CBF1000B79
:103EC000680000904FEA4B0A5D451ADDAAEB050435
:103ED0004FF0000B11E0394630460A9A00F0EDFC35
:103EE000002C04DB0098241A07EB090087B2544425
:103EF00006EB080086B20BF1010BAB45EBDDBDE82C
:103F0000F88F0098A0EB0B04002511E039463046ED
:103F10000A9A00F0D2FC002C04DBA4EB0A0406EBA6
:103F2000080086B20098044407EB090087B26D1CB4
:103F30005D45EBDDE3E72DE9F84F80460D461C4675
:103F40004EF67D7A08EB0206B2B22B462946404671
:103F5000CDF800A0FFF796FF2C44601C771E42F6B8
:103F6000651B83B205F10109BAB21FFA89F1B8B233
:103F7000CDF800B0FFF786FFA3B2B2B2A1B24046BF
:103F8000CDF800B0FFF77EFFA3B242462946404677
:103F9000CDF800A0FFF776FF0A98641E08F101082B
:103FA0000090A3B2BAB21FFA89F11FFA88F0FFF7A6
:103FB00069FFA4E72DE9FF4F81B08A46DDF838900C
:103FC00001980AEB03048618751E04F101080AF132
:103FD0000107B9F1000F24D14EF67D7BB2B25346F2
:103FE0005146CDF800B00198FFF74CFF42F665103E
:103FF00000901FFA88F3AAB2B9B2A8B2FFF742FF45
:1040000042F665100090A3B2B2B2A1B20198FFF7D8
:1040100039FF019AA3B2CDF800B051461046FFF720
:1040200031FFB9F1010F24D142F6651BB2B25346FC
:104030005146CDF800B00198FFF724FF4EF67D7091
:1040400000901FFA88F3AAB2B9B2A8B2FFF71AFF1C
:104050004EF67D700090A3B2B2B2A1B20198FFF704
:1040600011FF019AA3B2CDF800B051461046FFF7F8
:1040700009FFB9F1020F22D14FF6FF79B2B25346D0
:104080005146CDF800900198FFF7FCFE1FFA88F327
:10409000AAB2B9B2A8B2CDF80090FFF7F3FEA3B26E
:1040A000B2B2A1B2CDF800900198FFF7EBFE019AF1
:1040B000A3B2CDF8009051461046FFF7E3FE05B0DD
:1040C000BDE8F08F2DE9F84F06460F4690469B4617
:1040D00044F208293B46424639463046CDF8009026
:1040E000FFF7D0FE7C1C48F2104A751CA3B2A1B2A7
:1040F000A8B24246CDF800A0FFF7C4FE5B463246A8
:1041000039463046CDF80090FFF7BCFEAAB2A1B206
:10411000A8B25B46CDF800A0FFF7B4FE4FF6FF74DF
:104120005B464246594630460094FFF7ABFE5B467D
:104130004246394640460094FFF7A4FEDFE62DE9EB
:10414000F84380460E4614461F464FF6FF75334629
:104150002246314640460095FFF794FE3B464246D4
:10416000314640460095FFF78DFE7D1E48F210490E
:1041700008F10100ABB2A9B280B22246CDF800909E
:10418000FFF780FE44F208253B462246394640466A
:104190000095FFF777FE601E82B2711C89B280B273
:1041A0003B46CDF80090FFF76DFE3B462246314678
:1041B00020460095FFF766FEBDE8F8832DE9FF5F16
:1041C0000446DDF838800F4693469A4600949AE0FC
:1041D000802837D20D2805D0202807D920381FFA8B
:1041E00080F905E0009C1037BFB228E04FF00009CD
:1041F0000026002506EB09100390C9490398095CC5
:104200008020E840014207D0B81981B2601980B21D
:104210005A4600F052FB08E0D34506D0B81981B2E7
:10422000601980B2524600F048FB6D1CEDB2082DBB
:10423000E3D3761CF6B2102EDBD30834A4B208F117
:10424000010860E04FF00009B64909EB091098F841
:10425000003011F810209A424AD101EB4000029040
:10426000407898F80110884242D100250026029833
:1042700000EB45000190019881788020F0400142D8
:1042800007D0781981B2A01980B25A4600F015FB08
:1042900008E0D34506D0781981B2A01980B2524601
:1042A00000F00BFB761CF6B2082EE4D30026019832
:1042B000C1788020F040014208D0781981B2A0195D
:1042C000083080B25A4600F0F8FA09E0D34507D02A
:1042D000781981B2A019083080B2524600F0EDFA88
:1042E000761CF6B2082EE2D36D1CEDB2102DBDD3B4
:1042F00009F101091FFA89F9B9F1C80FA4D308F12E
:1043000002081034A4B298F8000000287FF460AFCF
:10431000B6E52DE9FE4F05460E4691469846DDF876
:1043200030B0B6E0802831D2202803D920381FFAD7
:1043300080FA01E04FF0000A0027002407EB0A1082
:10434000029077490298095C8020E040014207D042
:10435000F01981B2281980B24A4600F0AEFA08E09E
:10436000C14506D0F01981B2281980B2424600F04A
:10437000A4FA641CE4B2082CE3D37F1CFFB2102F14
:10438000DBD30BF1010B0835ADB282E000200090C9
:1043900000989BF8003000EB800101EB401062496F
:1043A00011F810209A4269D101EB40000190407849
:1043B0009BF80110884261D100240027019904EB89
:1043C000440001EB000A80209AF80210F8400142F4
:1043D00007D0301981B2E81980B24A4600F06DFA70
:1043E00008E0C14506D0301981B2E81980B24246D2
:1043F00000F063FA7F1CFFB2082FE4D300279AF87D
:1044000003108020F840014208D0301981B2E81929
:10441000083080B24A4600F050FA09E0C14507D0A2
:10442000301981B2E819083080B2424600F045FAEE
:104430007F1CFFB2082FE2D300279AF804108020D7
:10444000F840014208D0301981B2E819103080B22A
:104450004A4600F032FA09E0C14507D0301981B26E
:10446000E819103080B2424600F027FA7F1CFFB2F4
:10447000082FE2D3641CE4B2182C9ED30098401C91
:1044800080B200900098142882D30BF1020B1835EB
:10449000ADB29BF8000000287FF444AFBDE8FE8F6A
:1044A0002DE9FF4F81B007460E98884600261F4928
:1044B0004FF0800B01EBC01000900025009800EB3E
:1044C000860A1AF8059000242BFA04F010EA090F66
:1044D0000AD008EB060081B207EBC500204480B289
:1044E000039A00F0EAF90DE0DDE90301884209D002
:1044F00008EB060081B207EBC500204480B2049AA5
:1045000000F0DBF9641CE4B2082CDDD36D1CEDB2C5
:10451000042DD6D3761CF6B2202ECED3CFE50000E4
:10452000787D0008EA8A0008BE94000869830008C4
:1045300038B501210820FCF73CFF0324ADF800400A
:104540008DF8024010258DF803506946F048FCF7BD
:104550000CFD01210420FCF72CFFA020ADF8000089
:104560008DF802408DF803506946EA48FCF7FDFCDF
:1045700001211020FCF71DFF3020ADF800008DF860
:1045800002408DF803506946E348FCF7EEFC38BD65
:1045900070B50821DF4C80251034231D202206062B
:1045A00001D5256000E01D601A6022604006000E03
:1045B000491EC9B20029F2D170BD30B5D64C1025C4
:1045C0006561D34A022114321160FFF7E1FF2561D2
:1045D00030BD30B5D04C10256561CD4A0221103276
:1045E0001160FFF7D5FF256130BD70B50446CA4E96
:1045F00010257561C649022010310860200AFFF7B6
:10460000C7FFE0B2FFF7C4FF356170BD10B50C46BF
:10461000FFF7D3FF2046BDE81040DAE710B5BC48ED
:10462000012414300460642000F0CEFDB84810303E
:104630000460BDE81040322000F0C6BD10B5FFF7A1
:1046400077FFFFF7EBFF1120FFF7B7FF782000F0AF
:10465000BBFDB120FFF7B1FF0120FFF7BAFF2C200F
:10466000FFF7B7FF2D20FFF7B4FFB220FFF7A5FF3C
:104670000120FFF7AEFF2C20FFF7ABFF2D20FFF747
:10468000A8FFB320FFF799FF0120FFF7A2FF2C201E
:10469000FFF79FFF2D20FFF79CFF0120FFF799FFF9
:1046A0002C20FFF796FF2D20FFF793FFB420FFF794
:1046B00084FF0720FFF78DFFC020FFF77EFFA220B9
:1046C000FFF787FF0220FFF784FF8420FFF781FFB9
:1046D000C120FFF772FFC520FFF77BFFC220FFF765
:1046E0006CFF0A20FFF775FF0020FFF772FFC32061
:1046F000FFF763FF8A20FFF76CFF2A20FFF769FFAF
:10470000C420FFF75AFF8A20FFF763FFEE20FFF770
:1047100060FFC520FFF751FF0E20FFF75AFF36203C
:10472000FFF74BFFC020FFF754FFE020FFF745FFE6
:104730000F20FFF74EFF1A20FFF74BFF0F20FFF768
:1047400048FF1820FFF745FF2F20FFF742FF2820E2
:10475000FFF73FFF2020FFF73CFF2220FFF739FF44
:104760001F20FFF736FF1B20FFF733FF2320FFF743
:1047700030FF3720FFF72DFF0020FFF72AFF07202B
:10478000FFF727FF0220FFF724FF1020FFF721FF8C
:10479000E120FFF712FF0F20FFF71BFF1B20FFF7A1
:1047A00018FF0F20FFF715FF1720FFF712FF332028
:1047B000FFF70FFF2C20FFF70CFF2920FFF709FF61
:1047C0002E20FFF706FF3020FFF703FF3020FFF712
:1047D00000FF3920FFF7FDFE3F20FFF7FAFE002023
:1047E000FFF7F7FE0720FFF7F4FE0320FFF7F1FEC7
:1047F0001020FFF7EEFE2A20FFF7DFFE0020FFF774
:10480000E8FE0020FFF7E5FE0020FFF7E2FE7F2034
:10481000FFF7DFFE2B20FFF7D0FE0020FFF7D9FEC9
:104820000020FFF7D6FE0020FFF7D3FE9F20FFF702
:10483000D0FEF020FFF7C1FE0120FFF7CAFEF620F0
:10484000FFF7BBFE0020FFF7C4FE3A20FFF7B5FEDE
:104850000520FFF7BEFEBDE810402920ADE6F0B50B
:1048600005460F4614461E462A20FFF7A6FE0020E6
:10487000FFF7AFFEAD1CE8B2FFF7ABFE0020FFF77D
:10488000A8FEA41CE0B2FFF7A4FE2B20FFF795FEC4
:104890000020FFF79EFE7F1CF8B2FFF79AFE002073
:1048A000FFF797FE761CF0B2FFF793FEBDE8F040ED
:1048B0002C2082E60B460246D1E710B514464A1C6E
:1048C00093B2421C92B2FFF7CAFF2046BDE81040E7
:1048D0008BE600B5FFF7EEFFE0B2FFF77AFE204669
:1048E00000BD70B5064600219F237F220846FFF7D2
:1048F000B6FF2C20FFF761FE002500243046FFF7AD
:1049000074FE641CA02CF9D36D1C802DF5D370BDF2
:10491000000C0140000801400010014038B54EF67F
:104920007D742046FFF7DDFF81A1009123461F2201
:1049300000211020FFF742FC81A14FF4784500913F
:1049400023462A4614211020FFF738FC3A2371220F
:1049500026210F20FFF7F3FB7DA1009123464FF6A0
:10496000E07228211020FFF729FC582371224421EE
:104970000F20FFF7E4FB7AA1009123461F22462176
:104980001020FFF71BFC7623712262210F20FFF716
:10499000D6FB77A1009123462A4664211020FFF719
:1049A0000DFCBDE8384040F2DC5000F00DBC2DE9B4
:1049B000F84300244EF67D784046FFF792FF70A141
:1049C0004FF47849009143464A4614210020FFF7EE
:1049D000F5FB4FF47A7000F0F7FB4046FFF781FFDC
:1049E00003256C4F0526B4FBF5F006EB4011B4FB34
:1049F000F5F005FB10403A5D00EB80000092C0002E
:104A000043464A46FFF74CFD642000F0DDFB641C82
:104A1000E4B20A2CE7D3BDE8F88338B55EA04FF6C0
:104A2000FF74009023461F221E211020FFF7C6FBB3
:104A30005DA0009023461F2232211020FFF7BEFB0D
:104A40005DA0009023464FF4784246211020FFF7E6
:104A5000B5FB38BD08B55CA000904FF6FF734FF46E
:104A6000FC6246210A20FFF7A9FB08BDF8B5012426
:104A70004EF67D752846FFF734FF57A100912B466F
:104A80001F220A211420FFF799FBC82000F09CFB8D
:104A90004FF6FF754FF478464FF4FC670EE028465A
:104AA000FFF71FFF0020FFF71CFF3046FFF719FF3D
:104AB0003846FFF716FF1F20FFF713FF641EE4B20E
:104AC000EDD2F8BD2DE9F05F07464FF6FF7B584663
:104AD000FFF707FF02264FF4C86A002506EB8600A1
:104AE000272101EBC0090BEAC008272105EB85004F
:104AF00001EBC0018AB21FFA89F341460BEAC000FC
:104B0000FFF7ADFE002417F8141007EB44004078BF
:104B100041EA0020FFF769FD641C5445F3DB6D1C7E
:104B2000032DE2DB761C042ED7DBBDE8F09F0000EE
:104B3000C8ABB6AFB5E7D7D3BCBCCAF50000000020
:104B4000D2BABEA7B2E2CAD4B3CCD0F20000000001
:104B5000D1D5C9ABCCEEB3E4B2E2CAD400000000B8
:104B6000CEC4D7D6CFD4CABEB2E2CAD400000000A9
:104B7000CDBCC6ACCFD4CABEB2E2CAD400000000DD
:104B80003447204D4F44554C452053544152542EE8
:104B9000000000009000002053544D333220344771
:104BA00020475053000000005443502F434F4150C2
:104BB0002F4D515454000000C8ABB3CCBCBCCAF557
:104BC000D6A7B3D60000000051513A3233353734FE
:104BD0003831343331000000436F6C6F72205465FC
:104BE00073740000F0B587B0044601211920FCF76A
:104BF000E0FB0121CF043846FCF7E6FB0121AB487E
:104C0000FCF744FAAA4E3046FDF740FAB015ADF86D
:104C1000180010208DF81B0003258DF81A5006A9E6
:104C2000A448FCF7A2F93015ADF818008DF81A5019
:104C300018208DF81B00A04D06A92846FCF795F911
:104C4000E814ADF8180004208DF81B0006A92846CA
:104C5000FCF78BF901213846FCF7CCFB00213846E4
:104C6000FCF7C8FB02940024ADF80C40ADF80E40F0
:104C7000ADF81040ADF814400C20ADF8120002A9B8
:104C80003046FDF74BFA34208DF8040002208DF8F1
:104C900005008DF8060001208DF8070001A8FBF73C
:104CA0008EFC012240F225513046FDF7BEFA01216B
:104CB0003046FDF7AEFA8148046007B0F0BD70B52C
:104CC0007B4D40F2255631462846FDF77BFB7C495B
:104CD0000968884243D02846FDF700FB0346794C1B
:104CE000794A6078411CC9B261701354092930D3E4
:104CF000012020701078012829D15078032826D16E
:104D00009078042823D19079D17840EA0160117914
:104D10000B04517943EA01210843606000F036FF3B
:104D2000D4E9022300F092FE0022684B00F019FE45
:104D3000D4E9042300F071FD0022654B00F00EFE63
:104D400000F050FF81B2618062A001F033F90020D1
:104D5000607031462846BDE87040FDF753BB70BD1A
:104D600070B505464FF6FF7000234AF201040CE0CF
:104D7000EA5C50400022C60702D04008604000E0D4
:104D80004008521C082AF6DB5B1C8B42F0DB70BD2E
:104D900070B505460E4654A001F00CF9002404E05D
:104DA000295D55A001F006F9641CB442F8DBBDE8AA
:104DB000704053A001F0FEB80FB42DE9F84FDFF8B2
:104DC00044810120C8F8A0010BAA3F480A9901F0CC
:104DD00015F94FF00009CDF800903B4800F04EFC6B
:104DE00086B20024324F484DDFF8DCA00EE04021AF
:104DF0003846FDF7DCFAD5F898118842F7D01AF852
:104E000004103846FDF766FA641CA4B2B442EED32F
:104E1000C8F8A091BDE8F80F5DF814FB2DE9F0414A
:104E200007460C461646384D14E080213846FDF7FB
:104E3000BEFAD5F898118842F7D014F8011B38460D
:104E4000FDF748FA40213846FDF7B1FAD5F8981138
:104E50008842F7D0761E701CE7D1BDE8F08110B50E
:104E600013490C1D04E00B885B06FCD52280401C16
:104E70000278002AF7D110BD70B505460E46224CC7
:104E800080212846FDF793FAD4F898219042F7D074
:104E900031462846FDF71EFA40212846FDF787FADD
:104EA000D4F898118842F7D070BD0000000230009D
:104EB000004C0040000C014000100140A081214244
:104EC00098012242A0000020E00400200040AF40F2
:104ED0000000744050617273656420446174613AEB
:104EE0002025750A000000004465766963655F440B
:104EF0006174613A00000000253032582000000043
:104F00000D0A0000008021420000224208B5012164
:104F10001020FCF74EFA4FF40060ADF800001020AE
:104F20008DF8030003208DF8020069465448FCF711
:104F30001CF808BD10B5FFF7E9FFBDE810404FF4BD
:104F400000614F48FCF780B808B54FF40060ADF839
:104F5000000048208DF8030069464948FCF705F831
:104F600008BD08B54FF40060ADF8000010208DF8C2
:104F7000030003208DF8020069464148FBF7F5FF66
:104F800008BD2DE9F04100250024DFF8F4804FF43E
:104F90000067012639464046FCF742F80028F9D060
:104FA000282000F0FAF839464046FCF739F8012885
:104FB0000BD0C4F1070006FA00F08543641CE4B28C
:104FC000082CE7D32846BDE8F08139464046FCF777
:104FD00027F80128F9D0C4F1070006FA00F0C0B2A2
:104FE0000543EBE770B5FFF7BCFF254D4FF40064B8
:104FF00021462846FCF72AF8122000F0E5F8214661
:105000002846FCF721F81E2000F0C7F8FFF79CFFA8
:1050100021462846FCF704F808B1002070BD21465F
:105020002846FBF7FDFF0028F9D0264631462846E2
:10503000FBF7F6FF0128F9D0FFF7A3FF114C207012
:10504000FFF79FFF6070FFF79CFFA070FFF799FFCD
:10505000E070FFF796FF2071FFF783FF3146284687
:10506000FBF7F2FF20786178E2780844A1781144D8
:1050700008442179884201D1012070BD002070BD13
:1050800000080140BA00002030B587B001214FF47C
:105090000470FCF78EF94FF40040FCF70DF9032083
:1050A000ADF8040000248DF8074001A92D48FBF756
:1050B0005CFF2D4D2846FBF7D9FA02948DF80C4081
:1050C0008DF80D404FF460210491059401218DF875
:1050D000181002A92846FBF7F5FA01212846FBF72C
:1050E00019FB2846FBF739FB2846FBF73BFB00285A
:1050F000FAD12846FBF73DFB2846FBF73FFB00288B
:10510000FAD107B030BD10B5174C01460723012274
:105110002046FBF761FB01212046FBF736FB02210D
:105120002046FBF73FFC0028F9D02046BDE81040A0
:10513000FBF798BB2DE9F04107460E4600250024F9
:1051400008E03846FFF7DFFF0544052000F03CF893
:10515000641CE4B2B442F4D3B5FBF6F080B2BDE80F
:10516000F0810000001001400024014010B56FF0F4
:105170000400FBF767FA204820490068B0FBF1F013
:105180001F49C0B2087000EB4002C2EBC0104FF6DE
:10519000FF7202EAC000488010BD194909784843EF
:1051A0004FF0E021486100238B61086940F0010065
:1051B00008610869C20701D0C003FAD5086920F068
:1051C000010008618B6170470D49498848434FF0E1
:1051D000E021486100238B61086940F0010008610B
:1051E0000869C20701D0C003FAD5086920F00100A0
:1051F00008618B61704700000000002000127A00F7
:10520000C00000204FF4A060FBF7D4B97047F34909
:105210000A885206FCD5F14AC1B2121D11807047AE
:1052200070B50646ED4DEE4C80212846FDF7BFF8DF
:10523000D4F898219042F7D031462846BDE8704016
:10524000FDF748B870B50646E64DE54C8021284686
:10525000FDF7ADF8D4F898219042F7D031462846B2
:10526000BDE87040FDF736B870B50646DE4DDC4C43
:1052700080212846FDF79BF8D4F898219042F7D07A
:1052800031462846BDE87040FDF724B8F0B587B038
:105290000546012144F20400FCF78BF8CF4E30465E
:1052A000FCF7F4FE7015ADF8180003248DF81A40D1
:1052B00018208DF81B00CD4F06A93846FBF755FE88
:1052C0003015ADF8180048208DF81B0006A93846A7
:1052D000FBF74BFE25208DF804008DF805408DF876
:1052E000064001208DF8070001A8FBF768F9029538
:1052F0000020ADF80C00ADF80E00ADF81000ADF8D0
:1053000014000C20ADF8120002A93046FCF706FF8D
:10531000012240F224413046FCF787FF012240F28F
:1053200025513046FCF781FF01213046FCF771FF23
:1053300007B0F0BDF0B587B0054601210420FCF7A9
:1053400038F801214804FCF73FF8A64E3046FCF738
:105350009DFE0424ADF8184003208DF81A00182093
:105360008DF81B00A14F06A93846FBF7FEFD08206B
:10537000ADF818008DF81B4006A93846FBF7F5FD7F
:1053800026208DF8040000248DF8054001208DF8BA
:1053900006008DF8070001A8FBF711F90295ADF89A
:1053A0000C40ADF80E40ADF81040ADF814400C20A4
:1053B000ADF8120002A93046FCF7B0FE012240F21F
:1053C00025513046FCF731FF01213046FCF721FF23
:1053D000AEE770B586B0054601210820FBF7E9FF6E
:1053E00001218804FBF7F0FF7F4E3046FCF74EFEAC
:1053F0003015ADF8140003208DF8160018208DF834
:1054000017007B4C05A92046FBF7AFFDE014ADF873
:10541000140004208DF8170005A92046FBF7A5FD10
:1054200027208DF8000000248DF8014001208DF820
:1054300002008DF803006846FBF7C1F80195ADF84E
:105440000840ADF80A40ADF80C40ADF810400C2013
:10545000ADF80E0001A93046FCF760FE012240F2D3
:1054600025513046FCF7E1FE01213046FCF7D1FE24
:1054700006B070BD10B559490C1D04E00B885B06E1
:10548000FCD52280401C0278002AF7D110BD30B430
:1054900054490C1D04E00B885B06FCD52280401C9F
:1054A0000278002AF7D130BCFDF745B810B54E4957
:1054B0000C1D04E00B885B06FCD52280401C0278A2
:1054C000002AF7D110BD10B54A490020C1F80402E6
:1054D0004FF40071474800F09CF8BDE81040FDF71C
:1054E0002AB8444AD2F80412B1F5007F03D3002051
:1054F000C2F8040270474B1CC2F804325054704783
:1055000070B5364D40F225512846FCF75BFF344C10
:10551000D4F89811884205D02846FCF7DFFEC0B2C7
:10552000FFF7DFFF40F224412846FCF74BFFD4F899
:105530009811884204D02846BDE87040FCF7CEBEE2
:1055400070BD2D4AD2F80412B1F5007F03D30020BC
:10555000C2F8040270474B1CC2F804325054704722
:1055600070B5204C40F2255529462046FCF72AFF0D
:10557000012809D12046FCF7B1FEC0B2FFF7E1FFD8
:1055800029462046FCF73EFF08212046FCF70FFF86
:1055900001280BD12046FCF7A1FEC0B2FFF7D1FFD6
:1055A0002046BDE870400821FCF708BF70BD10B56B
:1055B0000D4C40F225512046FCF704FF0F490968C5
:1055C000884209D02046FCF789FE0D4AD2F8041221
:1055D0004B1CC2F80432505410BD0000003801408A
:1055E0000000224200440040004800400008014002
:1055F000000C0140EC040020F40600209801224237
:10560000FC080020D2B201E000F8012B491EFBD2B9
:1056100070470022F6E710B513460A4604461946BD
:10562000FFF7F0FF204610BD421E12F8013F002B8D
:10563000FBD111F8013B02F8013B002BF9D1704777
:1056400030B505462A460B4612F8010B13F8014BFC
:1056500008B1A042F8D01CB1002802D06D1CF1E7BF
:10566000284630BD10B5044604E00B7800F8013B35
:1056700003B1491C521EF8D2204610BD421C10F83E
:10568000011B0029FBD1801A7047F0B480EA0102A7
:10569000D40F4200B2EB410F02D202460846114637
:1056A0004A0042D0C30DDDB2C1F3C752AD1A202D5E
:1056B00035DAC1F3160141F4000204B15242C5F1DA
:1056C000200602FA06F12A411044B3EBD05F23D042
:1056D000C4B1012DA0EBC35009DCF0BC4FF0004277
:1056E00002EAC352DBB200F5000000F044BB400008
:1056F00000F1807000EBC350A0F1807040EAD170DF
:10570000490009E0490841EAC071A0EBC35000F527
:105710000000400800EBC350F0BC00F023BB614226
:10572000012202EB4101001BF6E7F0BC704781F05B
:105730000041AAE780F00040A7E780EA010210B527
:1057400002F00043400022D04A001FD0010E01EBBE
:105750001261C0F35600C2F3560240F4000042F456
:105760000002A0FB022000047F39140400D0401C7A
:1057700050EA124001D44000491EC2B20C0604EBAC
:10578000D010401C4008802A02D003E0002010BD49
:1057900020F00100002900DA0020184310BD30B4C9
:1057A00080EA010202F0004530F0004221F00040A2
:1057B00013D090B1C30DD40DC2F31601C0F316007F
:1057C000E41A41F4000140F400027D34914201D317
:1057D000641C00E04900002C02DA30BC0020704755
:1057E0004FF400000023914201D3891A034340087B
:1057F0004FEA4101F7D151B1914202D14FF000413E
:1058000005E002D24FF0010101E06FF0010103EB6E
:10581000C450284430BC00F0A5BA2DE9FE4F8046A4
:1058200081EA0300C00F0C46009021F0004123F0F4
:105830000045B8EB0200A94105D2404621469046FA
:105840001C460B46024623F00040104347D0270D6C
:10585000C7F30A00C3F30A510290401A019040288E
:105860006BDAC3F3130040F4801B0098924620B11A
:105870000023D2EB030A63EB0B0B01985946C0F1EE
:105880004002504600F03DFA06460D465046594645
:10589000019A00F055FA10EB08006141002487EAF4
:1058A000115284EAE7731A4340D0009A62B3019A16
:1058B000012A4FEA075215DC001B61EB02014FF091
:1058C000004202EA0752CDE90042001C41F5801176
:1058D00032462B4600F08CFA03B0BDE8F08F40460C
:1058E0002146F9E7001B61EB0201001C41F5801322
:1058F00000185B412018A2F5001747EB030140EAAE
:10590000D570B6196D4111E06D084FEA360645EACB
:10591000C0754FEA0752001B61EB0201001C41F504
:10592000801149084FEA30000019514132462B4698
:1059300003B0BDE8F04F00F04CBA009801224000DF
:105940000023D0EB020263EBE073009821464FEA9C
:10595000E074B8EB000061EB0401E9E783F0004379
:105960005BE781F0004158E72DE9FE4F81EA03042F
:1059700004F0004421F0004100944FF0000B23F0AC
:10598000004350EA01045ED052EA03045BD0C3F343
:105990000A54C1F30A552C44A4F2F3340194A0FB39
:1059A0000254C1F3130141F48011C3F3130343F410
:1059B000801301FB024400FB034E840A970A44EA69
:1059C000815447EA8357A4FB076802958D0A05FBBB
:1059D00007854FEA932C04FB0C542705029D4FEAE0
:1059E000065847EA1637B5EB08056EEB070C870E2D
:1059F000920E47EA811742EA8312A7FB0201B6EB37
:105A00000B0164EB00042B0D43EA0C335E1844EBEE
:105A10001C50DA465146E7FB0201C5F313044FEA76
:105A20000B3343EA14534FEA0432019C43EA060362
:105A3000A4F10C040294009CCDE900B400F0D8F964
:105A400003B0BDE8F08F00200146F9E72DE9F04DE5
:105A500081EA030404F0004B21F0004514464FF0A6
:105A6000000A23F0004150EA050220D054EA010266
:105A70001DD0C5F30A570246C5F31303C1F3130043
:105A8000C1F30A5640F4801543F48013A7EB0608CF
:105A9000101BD64608F2FD3873EB050002D308F15F
:105AA000010801E092185B41B8F1000F03DA002011
:105AB0000146BDE8F08D00204FF480110646844673
:105AC0000EE0171B73EB050705D3121B63EB0503F1
:105AD00006434CEA010C49084FEA300092185B413A
