:020000040800F2
:10000000380B002045260008E1030008E303000840
:10001000E7030008EB030008EF03000800000000FE
:10002000000000000000000000000000F3030008D2
:10003000F503000800000000F7030008F9030008BA
:100040005F2600085F2600085F2600085F2600087C
:100050005F2600085F2600085F2600085F2600086C
:100060005F2600085F2600085F2600085F2600085C
:100070005F2600085F2600085F2600085F2600084C
:100080005F2600085F2600085F2600085F2600083C
:100090005F2600085F2600085F2600085F2600082C
:1000A0005F2600085F2600085F2600085F2600081C
:1000B0005F2600081B2800085F2600085F2600084E
:1000C0005F2600085F2600085F2600085F260008FC
:1000D0005F26000871430008DD430008294400083A
:1000E0005F2600085F2600085F2600085F260008DC
:1000F0005F2600085F2600085F2600085F260008CC
:100100005F2600085F2600085F2600085F260008BB
:100110005F2600085F2600085F2600085F260008AB
:100120005F2600085F2600085F2600085F2600089B
:1001300000F002F800F090F80AA090E8000C824469
:100140008344AAF10107DA4501D100F085F8AFF246
:10015000090EBAE80F0013F0010F18BFFB1A43F0A5
:1001600001031847B0810000D0810000103A24BF7D
:1001700078C878C1FAD8520724BF30C830C144BF0C
:1001800004680C607047000000230024002500264E
:10019000103A28BF78C1FBD8520728BF30C148BFEA
:1001A0000B6070476E2904F0B683702904F0218536
:1001B000662905F0E184652905F0DE84672905F0EC
:1001C000DB846129AFF3008003681B0A28BF41F07C
:1001D0008001692904F0AE81642904F0AB8175299E
:1001E00004F0A8816F2904F0AF84782904F0ED842D
:1001F000E92904F04984E42904F04684F52904F04F
:100200004384EF2904F0AC84F82904F0EC840368FB
:10021000DB0928BF41F08001632904F0B88373290A
:1002200004F0BD83E32904F04B87F32904F05087E1
:10023000002070471FB504F0A1FF0400002000213A
:1002400005F084FC401C60600020002105F068FC83
:10025000E0601FBD10B510BD04F062FF1146FFF74E
:10026000E9FF00F009F805F03BF803B4FFF7F2FFEF
:1002700003BC03F0EDFE000003F07AFE03F0E2FEA3
:1002800002F035FA4FF4E13003F021FF32A004F020
:1002900015F803F084FB20203549086103F04EFD7A
:1002A000344803F0D2FD03F087FD4FF4966003F06D
:1002B0009CFE02F0E7F902F000FA4FF4E13003F09F
:1002C0005BFF2DA004F00BF84FF4E13003F0A4FF26
:1002D0002FA004F019F8344804F0E0F802F0D9FA3D
:1002E00002F0AFFB02F0C5FB04F01FF833E02F482B
:1002F000D0F80401C8B14FF4967003F076FE2CA03C
:1003000004F0CCF82949D1F8040102F04AFC4FF47A
:10031000967003F06AFE04F008F82C48006808B9EB
:10032000012000E000202949086029A10D2002F0E9
:1003300038FC4FF47A7003F058FE2448001F006820
:1003400008B9012000E000202049091F086002F0E0
:10035000C2FD02F007FACAE7554152543120496EF6
:100360006974205375636365737366756C0D0A0059
:10037000001001407C5B0008554152543220496E08
:100380006974205375636365737366756C0D0A0039
:10039000554152543320496E697420537563636527
:1003A000737366756C0D0A00AC820008BC010020F6
:1003B0003D3D3D3D3D73656E642070632064617416
:1003C000613D3D3D3D3D0D0A00000000948121420C
:1003D0007777772E637367736D2E636F6D00000000
:1003E000704700BFFEE700BFFEE700BFFEE700BFAB
:1003F000FEE77047704770477047000010B500F087
:100400003DFE012000F0BFFE00BF212000F079FE7C
:100410000028FAD0102000F099F9022000F082F9AB
:10042000002000F0D0FE002000F0DFFE4FF48060DE
:1004300000F0D2FE4FF46011002000F0A7FE012072
:1004400000F0B0FE00BF392000F05BFE0028FAD0BB
:10045000022000F0AAFE00BF00F0B0FE0828FBD189
:1004600001211D2000F078FF10BD0CB50020019087
:1004700000906C48006840F480306A49086000BF12
:100480006848006800F4003000900198401C01901A
:10049000009818B90198B0F5A06FF1D161480068D3
:1004A00000F4003010B10120009001E00020009025
:1004B0000098012843D15C48006840F010005A4978
:1004C00008600846006820F00300086008460068DD
:1004D00040F00200086053484068524948600846AE
:1004E000406848600846406840F4806048600846BC
:1004F000406820F47C1048600846406840F4E810EA
:1005000048600846006840F08070086000BF4548B9
:10051000006800F000700028F9D04248406820F0E0
:100520000300404948600846406840F002004860C7
:1005300000BF3C48406800F00C000828F9D10CBD11
:1005400010B5FFF792FF10BD10B53648006840F0B7
:100550000100344908600846406834490840314980
:10056000486008460068324908402E49086008463D
:10057000006820F4802008600846406820F4FE00EF
:1005800048604FF41F008860FFF7DAFF4FF000600B
:100590002849086010BD10B5002100200022214B21
:1005A0005B6803F00C0121B1042906D0082928D189
:1005B00007E0214B214C236027E01F4B1F4C236099
:1005C00023E0184B5B6803F47010164B5B6803F470
:1005D0008032022303EB904022B9194B4343174C5E
:1005E00023600DE00F4B5B6803F4003323B1144B21
:1005F0004343124C236003E00F4B43430F4C2360F3
:1006000003E00D4B0D4C236000BF00BF054B5B6842
:10061000C3F303130B4CE15C084B1B68CB40074C46
:10062000236010BD00100240002002400000FFF8CF
:10063000FFFFF6FE08ED00E000127A000000002047
:1006400000093D000400002031490143314A116096
:10065000704770B5002100230F22C47804B32D4CDD
:10066000246804F4E064C4F5E064210AC1F10403E1
:10067000CA40447804FA03F1847814402143090104
:10068000254C0678A155047804F01F050124AC40E0
:1006900005786D11AD0005F1E025C5F8004109E0D0
:1006A000047804F01F050124AC401C4D0678761137
:1006B00045F8264070BD1A4A0A400243154B1B1FDD
:1006C0001A60704739B1134A121D12680243114B68
:1006D0001B1D1A6006E00F4A121D126882430D4B63
:1006E0001B1D1A607047042808D14FF0E0210969EA
:1006F00041F004014FF0E022116107E04FF0E021EA
:10070000096921F004014FF0E022116170470000F7
:100710000000FA050CED00E000E400E080E100E0FC
:1007200080FFFF1F01460020FE4A106800F03800DD
:10073000084310607047FB49096821F00801F94A35
:10074000116011460968014311607047F549096855
:1007500021F01001F34A116011460968014311604C
:100760007047F148EF494860F04848607047EE48EC
:10077000EC494860ED4848607047EA48006940F03D
:100780008000E84908617047E648006940F0800051
:10079000E449086170470420E249C96801F0010199
:1007A00009B101200EE0DF49C96801F0040109B177
:1007B000022007E0DB49C96801F0100109B10320FC
:1007C00000E00420704700B502460423FFF7E3FF72
:1007D000034603E0FFF7DFFF0346521E012B01D162
:1007E000002AF7D102B90523184600BD30B50446EA
:1007F00004254FF43020FFF7E6FF0546042D17D1FE
:10080000C848006940F00200C649086108464461D2
:10081000006940F0400008614FF43020FFF7D3FF3B
:100820000546C048006941F6FD710840BD490861B0
:10083000284630BD10B504244FF43020FFF7C3FF25
:100840000446042C16D1B748006940F00400B549AD
:1008500008610846006940F0400008614FF430200C
:10086000FFF7B1FF0446AF48006941F6FB7108404D
:10087000AC490861204610BD00B502460423FFF7CD
:100880008AFF034603E0FFF786FF0346521E012B53
:1008900001D1002AF7D102B90523184600BD10B5D1
:1008A00004244FF43020FFF7E7FF0446042C16D150
:1008B0009C48006940F004009A49086108460069B4
:1008C00040F0400008614FF43020FFF7D5FF0446A8
:1008D0009448006941F6FB7108409249086120463E
:1008E00010BD00208F49C96901F0020109B1012042
:1008F00000E00020704730B5A5250424FFF7F1FF84
:1009000000B100254FF43020FFF75DFF0446042CB2
:100910003AD18548834988608448886008460069E0
:1009200040F0200008610846006940F0400008617E
:100930004FF43020FFF747FF0446042C1BD17948C1
:10094000006941F6DF710840764908610846006990
:1009500040F01000086176480580E002FFF733FFA1
:100960000446052C10D06F48006941F6EF7108402D
:100970006C49086108E0052C06D06A48006941F618
:10098000EF71084067490861204630BD78B50646DA
:100990000C46042500200090E802FFF714FF0546EE
:1009A000042D24D15F48006940F001005D490861D1
:1009B0003480E802FFF707FF0546042D10D1B01C74
:1009C0000090200C00990880E802FFF7FCFE054625
:1009D0005448006941F6FE7108405249086106E03A
:1009E0005048006941F6FE7108404E4908612846AA
:1009F00078BD70B504460D460426F002FFF7E3FE0D
:100A00000646042E11D14748006940F001004549CF
:100A100008612580F002FFF7D6FE064641480069CE
:100A200041F6FE7108403F490861304670BD70B51F
:100A300005460E460424E002FFF7C5FE0446042CDA
:100A400017D13948374988603848886008460069B6
:100A500040F0100008612E80E002FFF7B4FE04466B
:100A6000052C06D02F48006941F6EF7108402D494A
:100A70000861204670BD2DE9F04304464FF6FF762D
:100A80003746B046B1460425E443E6B2C4F307272F
:100A9000C4F307484FEA1469E802FFF794FE0546DD
:100AA000042D49D120481F498860204888600846A5
:100AB000006940F010000861FF2E06D01C48083085
:100AC0000680E802FFF77FFE0546042D08D1FF2FC0
:100AD00006D017480A300780E802FFF774FE054683
:100AE000042D0AD1B8F1FF0F07D011480C30A0F83F
:100AF0000080E802FFF767FE0546042D0AD1B9F130
:100B0000FF0F07D00A480E30A0F80090E802FFF768
:100B10005AFE0546052D0FD00248006941F6EF71D7
:100B2000084007E00020024023016745AB89EFCD74
:100B300000F8FF1F664908612846BDE8F08330B51C
:100B4000054604244FF43020FFF73DFE0446042CF4
:100B500041D160485E4988605F4888600846006906
:100B600040F0200008610846006940F0400008613C
:100B70004FF43020FFF727FE0446042C22D15448BE
:100B8000006941F6DF710840514908610846006973
:100B900040F0100008611DB100205049088002E0BB
:100BA000A5204E4908804FF43020FFF70CFE044684
:100BB000052C10D04648006941F6EF7108404449C1
:100BC000086108E0052C06D04148006941F6DF7154
:100BD00008403F490861204630BDF0B505460E4645
:100BE000174604243B483A4988603B488860E00245
:100BF000FFF7E9FD0446042C19D13548006940F09F
:100C000010003349086147F0F80030432843334966
:100C1000891C0880E002FFF7D6FD0446052C06D0AB
:100C20002B48006941F6EF710840294908612046C8
:100C3000F0BD2748C069800870472548006A7047A2
:100C400000202349096801F0200109B1012000E0DA
:100C50000020704729B11E4A126902431C4B1A61D9
:100C600004E01B4A12698243194B1A61704701461E
:100C70000020012908D1164AD26902F001020AB106
:100C8000012008E0002006E0114AD2680A400AB1BB
:100C9000012000E0002070470D49C8607047042023
:100CA0000B49C96801F0010109B101200EE00849B2
:100CB000C96801F0040109B1022007E00449C968CC
:100CC00001F0100109B1032000E00420704700008A
:100CD0000020024023016745AB89EFCD00F8FF1FDC
:100CE00010B50446CC48844208D10121042000F00C
:100CF0004DFB0021042000F049FB46E0C748844238
:100D000008D10121082000F041FB0021082000F05B
:100D10003DFB3AE0C248844208D10121102000F096
:100D200035FB0021102000F031FB2EE0BD4884424D
:100D300008D10121202000F029FB0021202000F013
:100D400025FB22E0B848844208D10121402000F070
:100D50001DFB0021402000F019FB16E0B34884423F
:100D600008D10121802000F011FB0021802000F03B
:100D70000DFB0AE0AE48844207D10121801500F046
:100D800005FB0021A01500F001FB10BD10B50121ED
:100D9000084600F0FBFA0021012000F0F7FA10BD30
:100DA0002DE9F04102460025002600200023002402
:100DB000002791F803C00CF00F0591F803C00CF068
:100DC000100CBCF1000F03D091F802C04CEA0505ED
:100DD00091F800C0BCF1000F31D0146800202BE066
:100DE0004FF0010C0CFA00F3B1F800C00CEA030656
:100DF0009E4220D183004FF00F0C0CFA03F7BC4346
:100E000005FA03FC4CEA040491F803C0BCF1280F76
:100E100006D14FF0010C0CFA00FCC2F814C00AE035
:100E200091F803C0BCF1480F05D14FF0010C0CFA4A
:100E300000FCC2F810C0401C0828D1D31460B1F8DF
:100E400000C0BCF1FF0F34DD546800202EE000F13B
:100E5000080C4FF0010808FA0CF3B1F800C00CEAD6
:100E600003069E4221D183004FF00F0C0CFA03F7CA
:100E7000BC4305FA03FC4CEA040491F803C0BCF13E
:100E8000280F05D100F1080C08FA0CF8C2F81480FC
:100E900091F803C0BCF1480F07D100F1080C4FF0E6
:100EA000010808FA0CF8C2F81080401C0828CED3BC
:100EB0005460BDE8F0814FF6FF710180022181701E
:100EC0000421C17070470246002093680B400BB1AB
:100ED000012000E0002070470146886880B270471A
:100EE00002460020D3680B400BB1012000E0002037
:100EF00070470146C86880B2704701617047416120
:100F000070470AB1016100E041617047C1607047FC
:100F10004FF480320A438261816182618269826911
:100F2000704702460020434B18684FF68073184004
:100F300040EA021008433F4B186070473E49C861C1
:100F40007047F0B50A46002300240021002500F078
:100F50000046B6F1004F02D1364EF16901E0354E40
:100F60007168C0F3034583B200F44016B6F5401F24
:100F700008D121F070612F4E766826F070662D4FF3
:100F80007E6012E000F48016B6F5801F06D10326BD
:100F900006FA05F4A14341F0706106E0460D360102
:100FA00003FA06F6B14341F0706122B1460D3601F5
:100FB00003FA06F6314300F00046B6F1004F02D1C5
:100FC0001C4EF16101E01B4E7160F0BD30B5002296
:100FD0008B071C0F0F2303FA04F2164B08338C10F7
:100FE00053F824309343134C08348D1044F82530C3
:100FF00023468C1053F824308C07240F00FA04F495
:1010000023430C4C08348D1044F8253030BD0A4978
:10101000DC3108607047000000080140000C01400E
:10102000001001400014014000180140001C014064
:101030000020014000000140000020420E490860ED
:1010400070470D49486070470B49886070474AF601
:10105000AA200949086070474CF6CC400649086050
:10106000704701460020044AD2680A400AB10120B4
:1010700000E000207047000000300040DF480068BA
:1010800040F00100DD49086008464068DC4908403E
:10109000DA49486008460068DA490840D7490860DC
:1010A0000846006820F4802008600846406820F464
:1010B000FE0048604FF41F0088607047CF49096800
:1010C00021F48031CD4A11601146096821F4802154
:1010D0001160B0F5803F03D0B0F5802F0ED106E04F
:1010E000C649096841F48031C44A116007E0C34928
:1010F000096841F4A021C14A116000E000BF00BFAF
:10110000704710B501460022002300204A11012A31
:1011100002D1BA4C236806E0022A02D1B74C236AF6
:1011200001E0B64C636A01F01F02012494401C40A8
:101130000CB1012000E0002010BD38B50020009067
:101140000024002500BF3120FFF7DBFF0546009893
:10115000401C00900098B0F5A06F01D0002DF2D097
:101160003120FFF7CEFF08B1012400E00024204623
:1011700038BD01460020A14A106820F0F80040EA7E
:10118000C10010607047A049086070470246002007
:101190009A4B586820F47C1042EA01031843974B9D
:1011A0005860704798490866704701460020934A86
:1011B000506820F003000843506070478F48406833
:1011C00000F00C007047014600208C4A506820F067
:1011D000F00008435060704701460020874A50687D
:1011E00020F4E06008435060704701460020834AC5
:1011F000506820F4605040EAC1005060704729B147
:101200007E4A527A02437D4B5A7204E07B4A527AFC
:1012100082437A4B5A7270477B49D83108607047D5
:1012200001460020754A506820F440400843506051
:1012300070470021714A20321170704A82F82010E4
:10124000012802D004280AD104E001216B4A20328F
:10125000117005E00521694A2032117000E000BFDD
:1012600000BF70476949086070476449096A0143D3
:10127000624A11627047654944390860704730B569
:1012800000210022002400235C4D6D6805F00C0154
:1012900021B1042905D0082923D105E05C4D056062
:1012A00022E05B4D05601FE0544D6D6805F470123F
:1012B000524D6D6805F48034022505EB92421CB94D
:1012C000544D554305600BE04C4D6D6805F40035F9
:1012D0001DB1504D5543056002E04D4D554305602D
:1012E00002E04B4D056000BF00BF444D6D6805F046
:1012F000F0010909484D6B5C0568DD4045603F4DD4
:101300006D6805F4E061090A434D6B5C4568DD409A
:1013100085603A4D6D6805F46051C90A3E4D6B5CBD
:101320004568DD40C560354D6D6805F44041890B69
:101330003A4D6B5CC568B5FBF3F5056130BD29B16D
:101340002E4A526902432D4B5A6104E02B4A5269DE
:1013500082432A4B5A61704729B1284A9269024355
:10136000264B9A6104E0254A92698243234B9A6195
:10137000704729B1214AD2690243204BDA6104E067
:101380001E4AD26982431D4BDA61704729B11B4A5C
:10139000D2680243194BDA6004E0184AD2688243EB
:1013A000164BDA60704729B1144A12690243134B95
:1013B0001A6104E0114A12698243104B1A617047A6
:1013C00012494039086070470F49C86470470B499B
:1013D000C87170470948406A40F080700749486208
:1013E000704701460020054A92680A400AB1012070
:1013F00000E00020704701498872704700100240E9
:101400000000FFF8FFFFF6FE000042428004424267
:1014100000127A0000093D00140000202400002082
:1014200010B50446FE48844208D10121C014FFF7DC
:10143000ADFF0021E014FFF7A9FFC4E0B4F1804F35
:1014400008D101210846FFF7AEFF00210120FFF778
:10145000AAFFB8E0F348844208D101210220FFF737
:10146000A2FF00210220FFF79EFFACE0EE4884427D
:1014700008D101210420FFF796FF00210420FFF787
:1014800092FFA0E0E948844208D101210820FFF73B
:101490008AFF00210820FFF786FF94E0E448844299
:1014A00008D101211020FFF77EFF00211020FFF757
:1014B0007AFF88E0DF48844208D101212020FFF72D
:1014C00072FF00212020FFF76EFF7CE0DA488442A3
:1014D00008D101214014FFF759FF00216014FFF7E4
:1014E00055FF70E0D548844209D10121C804FFF7B7
:1014F0004DFF00214FF40020FFF748FF63E0D04884
:10150000844209D101210805FFF740FF00214FF473
:101510008010FFF73BFF56E0CA48844209D1012101
:101520004805FFF733FF00214FF40010FFF72EFFAF
:1015300049E0C548844208D101214020FFF733FF2C
:1015400000214020FFF72FFF3DE0C048844208D132
:1015500001218020FFF727FF00218020FFF723FFD4
:1015600031E0BB48844208D101218015FFF71BFF01
:101570000021A015FFF717FF25E0B648844209D1E6
:1015800001210804FFF702FF00214FF48030FFF72C
:10159000FDFE18E0B048844209D101214804FFF75C
:1015A000F5FE00214FF40030FFF7F0FE0BE0AB48F2
:1015B000844208D101218804FFF7E8FE00214FF49E
:1015C0008020FFF7E3FE10BD00220288944B984272
:1015D0000ED0994B98420BD0B0F1804F08D0914B70
:1015E000984205D0904B984202D0904B984204D13B
:1015F0004FF68F731A404B881A438D4B984207D091
:101600008C4B984204D04FF6FF431A40CB881A43C4
:1016100002808B8883850B880385814B98420BD091
:10162000854B984208D08B4B984205D08A4B984204
:1016300002D08A4B984201D10B7A03860123838220
:10164000704770B5002400220023058C4FF6FE760B
:1016500035400584028C8388048B4FF68F752C40AF
:10166000B51E2C400D882C43751E2A400D892A4337
:101670004D882A436A4DA8420BD06F4DA84208D02E
:10168000744DA84205D0744DA84202D0734DA842B3
:1016900013D14FF6F7752A404D892A434FF6FB7553
:1016A0002A408D882A434FF6FF652B404FF6FF55A1
:1016B0002B408D892B43CD892B4383800483CD8898
:1016C0008586028470BD70B5002400220023058C3D
:1016D0004FF6EF7635400584028C8388048B48F6FC
:1016E000FF752C404FF6FF452C400D884FF6FF76D6
:1016F00006EA05252C434FF6DF752A400D8906EAD8
:1017000005152A434D8806EA05152A43444DA8428B
:1017100002D0494DA8421DD14FF67F752A404D8910
:101720004FF6FF7606EA05152A434FF6BF752A40A5
:101730008D8806EA05152A434FF6FF352B404FF2F8
:10174000FF752B408D8906EA85052B43CD8906EA76
:1017500085052B4383800483CD880587028470BD73
:1017600070B5002400220023058C4FF6FF6635403B
:101770000584028C8388848B4FF68F752C404FF63E
:10178000FC752C400D882C434FF6FF552A400D89DF
:101790004FF6FF7606EA05252A434D8806EA052519
:1017A0002A431F4DA84202D0234DA8421DD14FF21B
:1017B000FF752A404D894FF6FF7606EA05252A4334
:1017C0004FF6FF352A408D8806EA05252A434EF656
:1017D000FF752B404DF6FF752B408D8906EA0515E8
:1017E0002B43CD8906EA05152B4383808483CD885E
:1017F0008587028470BD70B5002200230024058C0B
:101800004EF6FF7635400584038C8488828B48F63B
:10181000FF752A404FF6FF452A400D8820E0000062
:10182000002C01400004004000080040000C004073
:10183000001000400014004000340140004C014002
:10184000005001400054014000180040001C0040BE
:101850000020004000400140004401400048014099
:101860004FF6FF7606EA05252A434DF6FF752B4015
:101870000D8906EA05352B434D8806EA05352B43CD
:10188000FA4DA84202D0FA4DA84208D14BF6FF7596
:101890002C408D894FF6FF7606EA85152C4384800F
:1018A0008283CD88A0F84050038470BD828B4FF2B4
:1018B000FF331A408283828B4FF6FF7303EA0123C2
:1018C0001A4382837047F0B50C461546002200216A
:1018D0000026078C4EF6FF7C07EA0C070784828BF4
:1018E000018C4FF6FF7707EA043640F6FF473A408F
:1018F0004FF6FF7707EA05273A434FF6FF7707EAE7
:1019000003373A43D94FB8420ED0D94FB8420BD023
:10191000B0F1804F08D0D74FB84205D0D64FB8426B
:1019200002D0D64FB84206D14DF6FF77394046F483
:101930008057394305E047F6FF57394044F4805754
:10194000394382830184F0BD828B4FF6F3731A40D2
:101950008283828B0A4382837047F0B50C4615461A
:10196000002200210026078C4FF6FF6C07EA0C07C7
:101970000784828B018C4FF6FF7707EA04264FF627
:101980000C773A404FF6FF7707EA03172F433A43A5
:10199000B64FB8420ED0B64FB8420BD0B0F1804F20
:1019A00008D0B44FB84205D0B34FB84202D0B34FBD
:1019B000B84206D14FF6FF57394046F48077394395
:1019C00005E04FF2FF57394044F480773943828372
:1019D0000184F0BD028B4FF2FF331A400283028B69
:1019E0004FF6FF7303EA01231A4302837047F0B5F1
:1019F0000C461546002200210026078C4FF6EF7C8E
:101A000007EA0C070784028B018C4FF6FF7707EA81
:101A1000041640F6FF473A404FF6FF7707EA0337D0
:101A20003A434FF6FF7707EA05273A438F4FB8420C
:101A30000ED08F4FB8420BD0B0F1804F08D08D4FF1
:101A4000B84205D08C4FB84202D08C4FB84206D174
:101A50004FF6DF77394046F01007394305E04FF67F
:101A60005F77394044F01007394302830184F0BDA9
:101A7000028B4FF6F3731A400283028B0A430283F0
:101A80007047F0B50C46154600220021068C4FF633
:101A9000FE773E400684028B018C4FF60C76324076
:101AA0007E1C06EA03162E433243704EB0420ED01F
:101AB0006F4EB0420BD0B0F1804F08D06D4EB042A7
:101AC00005D06D4EB04202D06C4EB04206D14FF6FA
:101AD000FD76314044F00106314305E04FF6F576DE
:101AE000314044F00106314302830184F0BD70B5FA
:101AF00005460C465D4885420ED05D4885420BD0B8
:101B0000B5F1804F08D05B48854205D05A488542E0
:101B100002D05A48854200D100E000BF208850B969
:101B20002389A28861882846FFF7ABFFE188284611
:101B3000FFF79EFF25E0208804280AD12389A28888
:101B400061882846FFF753FFE1882846FFF742FFE8
:101B500017E0208808280AD12389A28861882846AE
:101B6000FFF7FBFEE1882846FFF7EEFE09E0238938
:101B7000A28861882846FFF7A6FEE1882846FFF77D
:101B800095FE70BD2DE9F04105460C460026012763
:101B9000608808B9022600E00026A088012801D14B
:101BA000022700E001272088A0B92389A288618844
:101BB0002846FFF766FFE1882846FFF759FF23898B
:101BC0003A4631462846FFF712FFE1882846FFF7DC
:101BD00001FF13E02389A28861882846FFF707FFE9
:101BE000E1882846FFF7F6FE23893A463146284623
:101BF000FFF747FFE1882846FFF73AFFBDE8F0818D
:101C00000A884B881A438B881A43CB881A430B895E
:101C10001A434B891A438B891A43A0F84420704712
:101C20004FF6FF71818000210180C18041800172E7
:101C300070470021018041808180C1800181418104
:101C40008181C18170470021018041800121818013
:101C50000021C18001817047002101804180818085
:101C6000C18001814181818170470000002C0140C9
:101C7000003401400004004000080040000C004017
:101C800021B1028842F00102028004E002884FF68E
:101C9000FE731A400280704731B1B0F8442042F41C
:101CA0000042A0F8442005E0B0F84420C2F30E0240
:101CB000A0F8442070471AB183890B43838102E066
:101CC00083898B43838170478182704741EA020395
:101CD000A0F8483070471AB183890B43838102E032
:101CE00083898B438381704701894FF6F8721140D5
:101CF000018170470A46002101894FF68F73194010
:101D000011430181704730B504460D4629462046EF
:101D1000FFF7F0FF208940F00700208130BD2DE95A
:101D2000F04104460D4616461F46602D06D13B463F
:101D3000012231462046FFF75AFE05E03B460122CC
:101D400031462046FFF79DFE29462046FFF7D2FF89
:101D5000208940F007002081BDE8F08130B50C46B5
:101D600000210189C9B24FF6FF7505EA0325154325
:101D700025432943018130BD2DE9F04105460E463A
:101D800017469846002443463A4631462846FFF710
:101D9000E5FF2C894FF6F870044044F007044FF635
:101DA0008F70044044F070042C81BDE8F081F0B5E0
:101DB00004460D4616461F463B46324629462046F7
:101DC000FFF7CCFF208940F480402081F0BD0185E1
:101DD000828270470A46002101884FF68F731940AE
:101DE000114301807047F0B50C4615461E46002190
:101DF000002200230189028B038C4FF6F8773940CB
:101E000021434FF6FC473A4040F201173A434FF660
:101E1000DD773B404FF6FF7707EA06172F433B433A
:101E2000018102830384F0BD0A460021018B4FF635
:101E30008F7319401143018370470A460021018BBB
:101E400048F6FF7319404FF6FF7303EA0223194364
:101E5000018370470A460021818B4FF68F7319402A
:101E60001143818370470A460021818B48F6FF7336
:101E700019404FF6FF7303EA022319438183704729
:101E800021B1028842F08002028004E002884FF60D
:101E90007F731A400280704721B1828842F00402A9
:101EA000828004E082884FF6FB731A40828070477C
:101EB00021B1828842F00802828004E082884FF6D5
:101EC000F7731A408280704721B1828842F0010284
:101ED000828004E082884FF6FE731A408280704749
:101EE0000A460021018B4FF6F77319401143018315
:101EF00070470A460021018B4FF2FF7319404FF6DD
:101F0000FF7303EA02231943018370470A46002145
:101F1000818B4FF6F77319401143818370470A464E
:101F20000021818B4FF2FF7319404FF6FF7303EAD4
:101F300002231943818370470A460021018B4FF623
:101F4000FB7319401143018370470A460021018B3E
:101F50004FF6FF3319404FF6FF7303EA022319438C
:101F6000018370470A460021818B4FF6FB731940AD
:101F70001143818370470A460021818B4FF6FF335E
:101F800019404FF6FF7303EA022319438183704718
:101F90000A460021018B4FF67F73194011430183DC
:101FA00070470A460021018BC1F30E014FF6FF7303
:101FB00003EA02231943018370470A460021818BFB
:101FC0004FF67F7319401143818370470A46002101
:101FD000818BC1F30E014FF6FF7303EA022319430D
:101FE000818370470A460021018C4FF6FD7319402A
:101FF0001143018470470A460021018C4FF6F773A4
:1020000019401143018470470A460021018C4FF6A4
:10201000DF7319404FF6FF7303EA0213194301847B
:1020200070470A460021018C4FF67F7319404FF626
:10203000FF7303EA02131943018470470A46002123
:10204000018C4FF6FF5319404FF6FF7303EA02234A
:102050001943018470470A460021018C4FF2FF7337
:1020600019404FF6FF7303EA0223194301847047B6
:102070000A460021018C4DF6FF7319404FF6FF739D
:1020800003EA023319430184704730B50023012469
:102090008C40A3B2048C9C430484048C02FA01F5A6
:1020A000ADB22C43048430BD30B5002304248C40F1
:1020B000A3B2048C9C430484048C02FA01F5ADB2F3
:1020C0002C43048430BD70B503460020002418461C
:1020D000183001258D40ACB21D8CA5431D8409B17B
:1020E000082909D100EB6100056825F0700505603D
:1020F0000568154305600EE00D1FC5F34E05284425
:10210000056825F4E045056005684FF6FF7606EAA8
:1021100002263543056070BD21B1028842F00202FB
:10212000028004E002884FF6FD731A400280704777
:1021300021B1028842F00402028004E002884FF6D6
:10214000FB731A400280704721B1828842F08002FE
:10215000828004E082884FF67F731A408280704745
:1021600002884FF6F7731A40028002880A43028001
:10217000704782884FF68F731A40828082880A43A4
:102180008280704702894FF6F8731A4002810289F3
:102190000A430281704702894FF67F731A40028119
:1021A00002890A43028170478184704781857047A4
:1021B000818670470187704781877047A0F840107B
:1021C000704702884FF6FF431A40028002880A4394
:1021D000028070470146888E70470146088F70471D
:1021E0000146888F70470146B1F8400070470146AC
:1021F000888C70470146088D704702460020138A7C
:102200000B400BB1012000E000207047CA4302825E
:10221000704730B50246002000230024158A05EAE5
:102220000103958905EA010413B10CB1012000E016
:10223000002030BDCA4302827047000010B504463A
:10224000FB48844209D101218803FFF79FF8002150
:102250004FF48040FFF79AF832E0F648844209D103
:1022600001214804FFF79FF800214FF40030FFF7E9
:102270009AF825E0F048844209D101218804FFF74B
:1022800092F800214FF48020FFF78DF818E0EB481A
:10229000844209D10121C804FFF785F800214FF4D9
:1022A0000020FFF780F80BE0E548844208D10121C7
:1022B0000805FFF778F800214FF48010FFF773F856
:1022C00010BD2DE9F04786B005460E460024A24613
:1022D00000BFA1460027B08900B100BF2F462C8A5D
:1022E0004CF6FF700440F08804432C82AC894EF613
:1022F000F3100440B08831890843718908430443CE
:10230000AC81AC8A4FF6FF400440B0890443AC82F4
:1023100001A8FEF7B4FFC648874202D1DDF810A03D
:1023200001E0DDF80CA0A88900F4004040B10AEB00
:10233000CA0000EB0A1031684900B0FBF1F807E071
:102340000AEBCA0000EB0A1031688900B0FBF1F813
:102350006420B8FBF0F004012009642101FB10891E
:10236000A88900F4004040B1322000EBC900B0FB66
:10237000F1F000F00700044308E0322000EB091000
:102380006421B0FBF1F000F00F0004432C8106B093
:10239000BDE8F0874FF41651016000218180C180B3
:1023A00001810C21418100218181704710B50246D5
:1023B0000020108A4FF2FF0318400B884C882343FB
:1023C0008C882343CC8823431843108210BD0021FE
:1023D000018041808180C180704721B1828942F4AF
:1023E0000052828104E082894DF6FF731A40828197
:1023F0007047F0B50346002400260025002040F673
:102400006A17B94200D100BF1846C1F3421401F067
:102410001F06012707FA06F5012C01D10C3004E054
:10242000022C01D1103000E014301AB107682F439C
:10243000076002E00768AF430760F0BD1AB1838A06
:102440000B43838202E0838A8B4383827047028A34
:102450004FF6F0731A400282028A0A4302827047E2
:1024600082894FF2FF731A40828182890A438281F6
:10247000704721B1828942F00202828104E08289A0
:102480004FF6FD731A4082817047028A4FF6DF7360
:102490001A400282028A0A430282704721B1028AEC
:1024A00042F48042028204E0028A4BF6FF731A4033
:1024B00002827047C1F30802828070470146888813
:1024C000C0F308007047818941F0010181817047A4
:1024D000028BD2B20283028B42EA0122028370474E
:1024E000028B02F47F420283028B0A43028370470D
:1024F00021B1828A42F02002828204E0828A4FF671
:10250000DF731A408282704721B1828A42F0100242
:10251000828204E0828A4FF6EF731A40828270470B
:1025200021B1828A42F00802828204E0828A4FF658
:10253000F7731A408282704721B1828942F40042C7
:10254000828103E08289C2F30E028281704721B149
:10255000828A42F40062828204E0828A4FF2FF7330
:102560001A4082827047828A4FF6FB731A40828239
:10257000828A0A438282704721B1828A42F0020233
:10258000828204E0828A4FF6FD731A40828270478D
:1025900002460020B1F5007F00D100BF13880B4038
:1025A0000BB1012000E00020704701F40072B2F589
:1025B000007F00D100BFCA430280704770B5024659
:1025C000002400230025002040F66A16B14200D105
:1025D00000BFC1F3421501F01F03012606FA03F301
:1025E000012D02D19689334006E0022D02D1168AD0
:1025F000334001E0968A33400C12012606FA04F4B7
:102600001688344013B10CB1012000E0002070BDE9
:1026100010B50022002340F66A14A14200D100BF89
:102620000A1201249440A3B2DC43048010BD0000D0
:10263000003801400044004000480040004C004089
:10264000005000400948804709480047FEE7FEE780
:10265000FEE7FEE7FEE7FEE7FEE7FEE7FEE7FEE752
:1026600004480549054A064B704700004905000823
:102670003101000838050020380B00203807002001
:102680003807002008B501210920FEF765FE012169
:102690002848FEF756FC3820ADF8000010208DF8D1
:1026A000030003208DF8020069462348FEF778FBFB
:1026B00038212148FEF721FC08BD10B520211E4815
:1026C000FEF71DFC4FF47A7001F08FFC10211A48C0
:1026D000FEF715FC4FF47A7001F087FC08211648CC
:1026E000FEF70DFC4FF47A7001F07FFC10BD08B5C9
:1026F00001210420FEF730FE4FF48050ADF80000B9
:1027000010208DF8030003208DF8020069460B4865
:10271000FEF746FB4FF480510848FEF7EEFB4FF4FE
:102720007A7001F062FC4FF480510448FEF7E7FB39
:1027300008BD000000023000000C0140000801400C
:1027400070B505460C4645F25550FEF777FC284615
:10275000FEF777FC2046FEF777FCFEF778FCFEF7E5
:102760007BFC70BD704700007FB505460C4601211B
:102770000220FEF7FEFDADF80850ADF80440002041
:10278000ADF80A00ADF8060001A92B48FEF71CFFC2
:10279000012211462848FFF78EFA1D208DF800000F
:1027A00000208DF8010003208DF8020001208DF833
:1027B00003006846FDF74DFF00211F48FFF760FA50
:1027C0007FBD7FB505460C4601210420FEF7D1FDF3
:1027D000ADF80850ADF804400020ADF80A00ADF89F
:1027E000060001A91548FEF7EFFE01221146134825
:1027F000FFF761FA1E208DF8000003208DF801001C
:102800008DF8020001208DF803006846FDF721FFD6
:1028100001210A48FFF734FA7FBD10B501210648AF
:10282000FFF7F7FC06490968884203D001210248F6
:10283000FFF700FD10BD000000040040000800404C
:102840009801224208B5FE4801F01CFEFDA1FC489B
:1028500001F070FFFD4908600846006848B1FCA01F
:102860004FF6FF734FF478420A210090102000F0D9
:10287000FAFD4FF4967001F0B8FB0020F049C1F862
:1028800004014FF48071EE4801F088FFFFF76AFF02
:1028900008BD08B5F2A001F001FEF6A001F01FFD91
:1028A0004FF4967001F0A1FBE54801F0EBFDF3A1B8
:1028B000E34801F03FFFE5490860FFF7C3FF1BE075
:1028C000EFA04FF6FF734FF478420A2100901020DA
:1028D00000F0C9FDEEA001F0E1FDFFF7B3FFE5A0B8
:1028E00001F0FDFC4FF4967001F07FFBE3A1D448AA
:1028F00001F020FFD5490860D44800680028DFD0E7
:10290000EAA04FF6FF734FF478420A21009010209E
:1029100000F0A9FDE9A001F0C1FDF0A001F0DFFC8D
:102920004FF4967001F061FBFFF78CFFEDA001F012
:10293000D6FC4FF4967001F058FBFFF783FFECA034
:1029400001F0CDFC4FF4967001F04FFBFFF77AFFDA
:10295000EAA001F0C4FC4FF4967001F046FBEAA136
:10296000B74801F0E7FEB94908600EE0FFF76AFFDB
:10297000E2A001F0B4FC4FF4967001F036FBE2A146
:10298000AF4801F0D7FEB1490860B04800680028A0
:10299000ECD0AB490831DDA001F080FDFFF752FF1C
:1029A000DFA04FF6FF734FF478420A210090102009
:1029B00000F059FDDEA001F092FC4FF4967001F09A
:1029C00014FBDEA19E4801F0B5FEA0490860FFF7A8
:1029D00039FF0EE0FFF736FFD5A001F080FC4FF481
:1029E000967001F002FBD5A1954801F0A3FE97492E
:1029F0000860964800680028ECD0D3A04FF6FF731B
:102A00004FF478420A210090102000F02CFDFFF7CF
:102A100019FFD1A001F063FC4FF4967001F0E5FAC4
:102A2000D0A1874801F086FE884908600846006802
:102A300020B183490E31CDA001F030FDFFF792FEA9
:102A400008BD10B5D3A001F04AFC642001F0CDFA16
:102A5000D4A001F044FC642001F0C7FAD5A001F035
:102A60003EFC642001F0C1FAFFF7ECFEFFF77AFEAE
:102A700010BD08B5D3A04FF6FF731F221E21009092
:102A8000002000F0F0FCD3A04FF6FF731F2232218C
:102A90000090002000F0E7FCD1A04FF6FF731F224A
:102AA00032210090582000F0DEFCCFA04FF6FF73DB
:102AB0004FF478420A210090102000F0D4FCCEA000
:102AC00001F00DFC4FF4967001F08FFA6BA15C4899
:102AD00001F030FE5D4908600020CB49086015E038
:102AE000C9480068401CC849086064A1544801F006
:102AF00021FE56490860642001F077FAC248006858
:102B0000642803DD0020C049086003E04F480068E6
:102B10000028E5D000BFFFF795FE4FF48071BB4859
:102B200001F01AFEAEA3A7A2B9A1B84801F0C2FCF9
:102B3000B64801F0D4FB4FF4967001F056FABCA1F0
:102B40003F4801F0F7FD414908600020AE490860A8
:102B500015E0AD480068401CAB490860B4A1384896
:102B600001F0E8FD39490860642001F03EFAA6480A
:102B70000068642803DD0020A349086003E03348AF
:102B800000680028E5D000BFADA04FF6FF734FF4FA
:102B900078420A210090102000F065FCFFF752FEF9
:102BA00008BD38B504460D46A9A04FF6FF734FF493
:102BB00078420A210090102000F055FC4FF48071FB
:102BC000924801F0C9FD2246A5A1904801F072FC8F
:102BD0008E4801F084FB4FF4967001F006FAA5A12F
:102BE000174801F0A7FD1949086012E086480068FF
:102BF000401C854908609FA1114801F09BFD1349C5
:102C0000086081480068642803DD00207E49086070
:102C100003E00E4800680028E8D000BF284601F015
:102C20005EFB4FF4967001F0E0F993A1044801F0C7
:102C300081FD0649086000207349086039E1000001
:102C4000C40200202B5149555243000028000020A7
:102C50005245434549564520444154410000000037
:102C6000737461727420696E697420454332303028
:102C7000580D0A00415445310D0A00004F4B000029
:102C8000434F4E4E4543542034472E2E0000000043
:102C9000B5A5C6ACBBFAD5FDD4DAC1ACBDD3C4A3CF
:102CA000BFE92E2E2E2E2E2E0D0A0000434F4E4E23
:102CB000454354205B4F4B5D000000002A2A2A2A1E
:102CC000B5A5C6ACBBFABACDC4A3BFE9C1ACBDD3F0
:102CD000B3C9B9A62A2A2A2A2A0D0A004154490D45
:102CE0000A00000041542B4349434349440D0A0064
:102CF00041542B4347534E0D0A00000041542B43CF
:102D0000494D490D0A00000034363000CED2B5C41A
:102D1000BFA8BAC5CAC7203A202573200D0A0000F3
:102D200053494D43415244205B4F4B5D000000002E
:102D300041542B43474154543F0D0A002B43474114
:102D400054543A20310000005245474953544552EB
:102D50005B4F4B5D0000000041542B4353510D0A63
:102D6000000000002B4353513A000000D0C5BAC503
:102D7000D6CAC1BFCAC73A257320D7A2D2E2A3BA26
:102D8000D0C5BAC5D7EEB4F3D6B5CAC73331200D16
:102D90000A00000041542B434950434C4F53453DDA
:102DA000300D0A0041542B434950434C4F53453D8D
:102DB000310D0A0041542B434950434C4F53453D7C
:102DC000320D0A003130362E31342E3134382E3166
:102DD0003835000053455256455220504F5254004A
:102DE000313030310000000053455256455220200A
:102DF0005B2E2E5D0000000041542B4E45544F5079
:102E0000454E0D0A0000000030000020BB000020ED
:102E100041542B4349504F50454E3D302C22544392
:102E200050222C222573222C25730D0A000000004D
:102E30002B4349504F50454E3A20302C3000000073
:102E400053455256455220205B4F4B5D0000000019
:102E500053454E4420444154412E2E2E0000000084
:102E600041542B43495053454E443D302C25640D6D
:102E70000A0000003E0000002B43495053454E44D9
:102E80003A00000020480068401C1F490860AFF26B
:102E900018011E4801F04EFC1D490860642001F035
:102EA000A4F819480068642803DD0020164908606A
:102EB00003E0174800680028E4D000BFFFF7C2FC19
:102EC00014A04FF6FF734FF478420A2100901020AF
:102ED00000F0C9FA38BD08B5AFF298210B4801F0EF
:102EE00029FC0B4908600846006860B1FFF7AAFC9E
:102EF000AFF2A4204FF6FF734FF478420A210090FE
:102F0000102000F0B0FA08BD30000020C4020020FC
:102F10002800002053454E442044415441204F4B4B
:102F20000000000030B5014601F01F04C1F3451355
:102F3000CA0AE50205EB43151544A8B230BD2DE9D8
:102F4000F04706460F4690469A46002445464FEA0B
:102F50004800C0F103094AE07A1991B2321990B2DF
:102F6000524600F062FE7A1991B2321B90B252467C
:102F700000F05BFE7A1B91B2321990B2524600F01B
:102F800054FE7A1B91B2321B90B2524600F04DFEB5
:102F90003A1991B2721990B2524600F046FE3A19AF
:102FA00091B2721B90B2524600F03FFE3A1B91B2B2
:102FB000721990B2524600F038FE3A1B91B2721B61
:102FC00090B2524600F031FEB9F1000F05DA04204C
:102FD00000FB049000F1060907E0601B042101FBDF
:102FE000009000F10A09681E85B2601C84B2AC42F0
:102FF000B2DBAC4237D17A1991B2321990B2524653
:1030000000F013FE7A1991B2321990B2524600F0D4
:103010000CFE7A1B91B2321990B2524600F005FEB6
:103020007A1B91B2321B90B2524600F0FEFD3A1963
:1030300091B2721990B2524600F0F7FD3A1991B26E
:10304000721B90B2524600F0F0FD3A1B91B2721919
:1030500090B2524600F0E9FD3A1B91B2721B90B259
:10306000524600F0E2FDBDE8F0872DE9FF4F83B046
:10307000804689464946404600F0CDFD0598A0EBC4
:1030800008050698A0EB0906002D02DB012002903E
:1030900003E04FF0FF3002906D42002E02DB012072
:1030A000019003E04FF0FF30019076424FEA450A6D
:1030B0004FEA460BB54219DDABEB0504002712E0E1
:1030C00049464046109A00F0B0FD002C05DBA4EB09
:1030D0000A04019848441FFA80F95C44029840446D
:1030E0001FFA80F87F1CAF42EADD18E0AAEB060465
:1030F000002712E049464046109A00F096FD002C49
:1031000005DBA4EB0B04029840441FFA80F85444FA
:10311000019848441FFA80F97F1CB742EADD07B0E6
:10312000BDE8F08F2DE9F84305460C4616461F46CC
:10313000DDF820804EF67D700090A81982B22346FB
:1031400021462846FFF791FF42F6651004F1010C75
:10315000BC441FFA8CF305EB060CACF1010C1FFA12
:103160008CF204F1010C1FFA8CF105EB060CACF1AA
:10317000010C00901FFA8CF0FFF777FF42F6651004
:103180000090E01983B2A81982B2E01981B22846F2
:10319000FFF76BFF4EF67D700090E01983B22A4670
:1031A00021462846FFF761FF04F1010CBC44ACF155
:1031B000020C1FFA8CF305F1010CB444ACF1020CC3
:1031C0001FFA8CF204F1010C1FFA8CF105F1010CCD
:1031D0001FFA8CF0CDF80080FFF747FFBDE8F883B9
:1031E0002DE9F84305460C4616461F46DDF82080BB
:1031F000B8F1000F39D14EF67D700090A81982B257
:10320000234621462846FFF730FF42F6651004F1B9
:10321000010CBC441FFA8CF305EB060CACF1010C5D
:103220001FFA8CF204F1010C1FFA8CF105EB060C6D
:10323000ACF1010C00901FFA8CF0FFF716FF42F67C
:1032400065100090E01983B2A81982B2E01981B22A
:103250002846FFF70AFF4EF67D700090E01983B212
:103260002A4621462846FFF700FFB8F1010F39D161
:1032700042F665100090A81982B2234621462846DE
:10328000FFF7F3FE4EF67D7004F1010CBC441FFA0B
:103290008CF305EB060CACF1010C1FFA8CF204F177
:1032A000010C1FFA8CF105EB060CACF1010C00903F
:1032B0001FFA8CF0FFF7D9FE4EF67D700090E019F2
:1032C00083B2A81982B2E01981B22846FFF7CDFE79
:1032D00042F665100090E01983B22A46214628463E
:1032E000FFF7C3FEB8F1020F39D14FF6FF7000901F
:1032F000A81982B2234621462846FFF7B6FE4FF6AC
:10330000FF7004F1010CBC441FFA8CF305EB060CB2
:10331000ACF1010C1FFA8CF204F1010C1FFA8CF1D4
:1033200005EB060CACF1010C00901FFA8CF0FFF7D6
:103330009CFE4FF6FF700090E01983B2A81982B28C
:10334000E01981B22846FFF790FE4FF6FF7000901B
:10335000E01983B22A4621462846FFF786FEBDE8DB
:10336000F883F8B504460D4616461F4644F2082079
:103370002B463246294600902046FFF776FE48F25B
:1033800010406A1C93B291B2621C009090B2324617
:10339000FFF76BFE44F208203B4622462946009088
:1033A0002046FFF762FE48F21040631C9AB26B1C85
:1033B00099B2631C009098B23B46FFF756FE4FF659
:1033C000FF703B463246394600902046FFF74DFEDF
:1033D0004FF6FF703B463246294600903046FFF7D5
:1033E00044FEF8BDF8B506460F4614461D464FF696
:1033F000FF703B462246394600903046FFF735FEC7
:103400004FF6FF702B463246394600903046FFF7A4
:103410002CFE48F210406A1E93B291B2721C0090CA
:1034200090B22246FFF721FE44F208202B462246A6
:10343000294600903046FFF718FE48F21040631E00
:103440009AB27B1C99B2631E009098B22B46FFF78C
:103450000CFE44F208202B462246394600902046B6
:10346000FFF703FEF8BD2DE9F84F0746884693465F
:103470009A46DDF828900097B3E099F8000080287C
:103480003DDA99F800600D2E05D1009F08F110007B
:103490001FFA80F830E0202E03DDA6F1200086B26E
:1034A00000E00026002422E000251CE004EB0610CA
:1034B000E849085C80212941084040B108EB04023A
:1034C00091B27A1990B25A4600F0AFFB09E0D345A9
:1034D00007D008EB040291B27A1990B2524600F07C
:1034E000A4FB681CC5B2082DE0DB601CC4B2102C24
:1034F000DADB07F1080087B209F1010971E0002663
:1035000068E006EB0610D44911F8100099F8001095
:1035100088425DD106EB0610CF4901EB40004078B0
:1035200099F80110884253D100244FE0002520E093
:1035300006EB0610C84901EB4000801C10F814107F
:1035400080202841014041B108EB040291B27A1970
:1035500090B25A4600F069FB09E0D34507D008EB6A
:10356000040291B27A1990B2524600F05EFB681CD8
:10357000C5B2082DDCDB002524E006EB0610B649B9
:1035800001EB4000801C012101EB4401405C8021E3
:103590002941084048B108EB040291B27A19083277
:1035A00090B25A4600F041FB0AE0D34508D008EB40
:1035B000040291B27A19083290B2524600F035FBFB
:1035C000681CC5B2082DD8DB601CC4B2102CADDB62
:1035D000701C86B2322E94DB09F1020907F110004B
:1035E00087B299F8000000287FF447AFBDE8F88F54
:1035F0002DE9F05F0646884693469A46DDF8289006
:10360000E2E099F80000802835DA99F80070202F60
:1036100003DDA7F1200087B200E00027002522E0AB
:1036200000241CE005EB07108A49095C802020413A
:10363000014041B108EB050291B2321990B25A46ED
:1036400000F0F3FA09E0D34507D008EB050291B288
:10365000321990B2524600F0E8FA601CC4B2082C4D
:10366000E0DB681CC5B2102DDADB09F1010906F1B7
:10367000080086B2A8E000279EE007EB870000EB79
:103680004710764911F8100099F8001088427CD153
:1036900007EB870000EB4710704901EB40004078D2
:1036A00099F801108842F2D1002580E0002423E03F
:1036B00007EB870000EB4710684901EB4000801CD6
:1036C00005EB4501405C80212141084040B108EBF9
:1036D000050291B2321990B25A4600F0A6FA09E0FA
:1036E000D34507D008EB050291B2321990B2524689
:1036F00000F09BFA601CC4B2082CD9DB002426E041
:1037000007EB870000EB4710544901EB4000801C99
:1037100005EB4501491C405C80212141084048B12E
:1037200008EB050291B23219083290B25A4600F005
:103730007CFA0AE0D34508D008EB050291B23219B1
:10374000083290B2524600F070FA601CC4B2082CE5
:10375000D6DB002427E007EB870000EB47103F494A
:1037600001EB4000801C05EB4501891C405C802179
:103770002141084050B108EB050291B232191032D4
:1037800090B25A4600F051FA0BE013E0D34508D04E
:1037900008EB050291B23219103290B2524600F095
:1037A00044FA601CC4B2082CD5DB681CC5B2182DC5
:1037B000FFF67CAF781C87B2142FFFF65EAF09F1DD
:1037C000020906F1180086B299F8000000287FF47B
:1037D00018AFBDE8F09F2DE9F05F07468846924696
:1037E0009946002531E000242BE01D490A9801EBA1
:1037F000C01000EB850010F804B000261DE080200A
:10380000304100EA0B0050B108EB050291B207EB22
:10381000C402324490B2524600F007FA0BE0CA45A7
:1038200009D008EB050291B207EBC402324490B212
:103830004A4600F0FAF9701CC6B2082EDFDB601CA5
:10384000C4B2042CD1DB681CC5B2202DCBDBBDE893
:10385000F09F0000FC6700086E750008567C0008A9
:10386000ED6D000808B501210820FDF775FD032066
:10387000ADF800008DF8020010208DF803006946B5
:10388000F848FDF78DFA01210420FDF765FDA02021
:10389000ADF8000003208DF8020010208DF8030021
:1038A0006946F148FDF77CFA01211020FDF754FD2F
:1038B0003020ADF8000003208DF8020010208DF8B4
:1038C00003006946E948FDF76BFA08BD00210821AD
:1038D00015E000F0800222B18022E34B10331A6021
:1038E00003E08022E04B14331A602022DE4B1433B5
:1038F0001A601B1F1A604206100E4A1ED1B2002920
:10390000E7DC704710B504461020D8494861022012
:10391000D449143108602046FFF7D8FF1020D3495E
:10392000086110BD10B504461020D049486102203E
:10393000CC49103108602046FFF7C8FF1020CB4962
:10394000086110BD10B504461020C8494861022026
:10395000C449103108602012FFF7B8FFE0B2FFF74A
:10396000B5FF1020C149086110BD30B505460C46B1
:103970002846FFF7C7FF2046FFF7D4FF30BD10B53C
:103980000120B84914310860642000F02EFB0120AA
:10399000B44910310860322000F027FB10BD10B58B
:1039A000FFF760FFFFF7EBFF1120FFF7ABFF782079
:1039B00000F01BFBB120FFF7A5FF0120FFF7B2FFCE
:1039C0002C20FFF7AFFF2D20FFF7ACFFB220FFF751
:1039D00099FF0120FFF7A6FF2C20FFF7A3FF2D2062
:1039E000FFF7A0FFB320FFF78DFF0120FFF79AFF3D
:1039F0002C20FFF797FF2D20FFF794FF0120FFF702
:103A000091FF2C20FFF78EFF2D20FFF78BFFB420B6
:103A1000FFF778FF0720FFF785FFC020FFF772FF51
:103A2000A220FFF77FFF0220FFF77CFF8420FFF733
:103A300079FFC120FFF766FFC520FFF773FFC220A3
:103A4000FFF760FF0A20FFF76DFF0020FFF76AFF16
:103A5000C320FFF757FF8A20FFF764FF2A20FFF7F4
:103A600061FFC420FFF74EFF8A20FFF75BFFEE20C7
:103A7000FFF758FFC520FFF745FF0E20FFF752FF65
:103A80003620FFF73FFFC020FFF74CFFE020FFF795
:103A900039FF0F20FFF746FF1A20FFF743FF0F20E3
:103AA000FFF740FF1820FFF73DFF2F20FFF73AFFF9
:103AB0002820FFF737FF2020FFF734FF2220FFF7F1
:103AC00031FF1F20FFF72EFF1B20FFF72BFF2320C6
:103AD000FFF728FF3720FFF725FF0020FFF722FF21
:103AE0000720FFF71FFF0220FFF71CFF1020FFF742
:103AF00019FFE120FFF706FF0F20FFF713FF1B2040
:103B0000FFF710FF0F20FFF70DFF1720FFF70AFF49
:103B10003320FFF707FF2C20FFF704FF2920FFF7D2
:103B200001FF2E20FFF7FEFE3020FFF7FBFE3020C6
:103B3000FFF7F8FE3920FFF7F5FE3F20FFF7F2FE12
:103B40000020FFF7EFFE0720FFF7ECFE0320FFF752
:103B5000E9FE1020FFF7E6FE2A20FFF7D3FE002043
:103B6000FFF7E0FE0020FFF7DDFE0020FFF7DAFEA2
:103B70007F20FFF7D7FE2B20FFF7C4FE0020FFF7C2
:103B8000D1FE0020FFF7CEFE0020FFF7CBFE9F20E6
:103B9000FFF7C8FEF020FFF7B5FE0120FFF7C2FED9
:103BA000F620FFF7AFFE0020FFF7BCFE3A20FFF73C
:103BB000A9FE0520FFF7B6FE2920FFF7A3FE10BDE2
:103BC000F0B504460D4616461F462A20FFF79AFE1A
:103BD0000020FFF7A7FEA11CC8B2FFF7A3FE00203C
:103BE000FFF7A0FEB11CC8B2FFF79CFE2B20FFF729
:103BF00089FE0020FFF796FE691CC8B2FFF792FE0F
:103C00000020FFF78FFE791CC8B2FFF78BFE2C2037
:103C1000FFF778FEF0BD30B504460D462B46224630
:103C200029462046FFF7CCFF30BD70B504460D464F
:103C30001646681C83B2601C82B229462046FFF7F4
:103C4000BFFF3046FFF77EFE70BD60B505460E46ED
:103C500031462846FFF7DFFFE0B2FFF763FE20465C
:103C600060BD0000000C0140000801400010014050
:103C700070B506469F237F2200210846FFF7A0FF6C
:103C80002C20FFF73FFE002408E0002503E030462B
:103C9000FFF758FE6D1CA02DF9D3641C802CF4D3C3
:103CA00070BD000008B54EF67D70FFF7E1FF87A0FC
:103CB0004EF67D731F22002100901020FFF7D3FBEA
:103CC00086A04EF67D734FF47842142100901020A8
:103CD000FFF7C9FB3A23712226210F20FFF782FB51
:103CE00082A04EF67D734FF6E072282100901020DE
:103CF000FFF7B9FB5823712244210F20FFF772FB15
:103D00007EA04EF67D731F22462100901020FFF703
:103D1000AAFB7623712262210F20FFF763FB7BA0B1
:103D20004EF67D734FF47842642100901020FFF727
:103D30009AFB40F2DC5000F058F908BDF8B50024B9
:103D40004EF67D70FFF794FF74A04EF67D734FF42E
:103D50007842142100900020FFF785FB4FF47A7021
:103D600000F043F94EF67D70FFF782FF00BF20E0C0
:103D7000032094FBF0F04001401D85B2032094FB2A
:103D8000F0F100FB114000EB80004FF6FF7101EAFB
:103D9000C0066748005D4EF67D734FF478422946B1
:103DA00000903046FFF717FD642000F01EF9601CFC
:103DB000C4B20A2CDCDBF8BD08B55EA04FF6FF7379
:103DC0001F221E2100901020FFF74DFB5DA04FF633
:103DD000FF731F22322100901020FFF744FB5DA0EB
:103DE0004FF6FF734FF47842462100901020FFF702
:103DF0003AFB08BD38B501244EF67D70FFF738FF59
:103E000058A04EF67D731F220A2100901420FFF760
:103E10002AFBC82000F0E9F811E04FF6FF70FFF729
:103E200027FF0020FFF724FF4FF47840FFF720FF23
:103E30004FF4FC60FFF71CFF1F20FFF719FF200065
:103E4000A4F10101CCB2E8D138BD2DE9F047074615
:103E50004FF6FF70FFF70CFF022633E000252EE03F
:103E600006EB860C4FEACC0C0CF1270C1FFA8CF3F6
:103E700005EB850C4FEACC0C0CF1270C1FFA8CF2E9
:103E800006EB860C4FEACC4C4FEA1C4105EB850C47
:103E90004FEACC4C4FEA1C40FFF792FE00240AE0A8
:103EA00017F8149007EB440090F8018049EA0820C5
:103EB000FFF748FD641CB4F5C86FF1DB6D1C032DE2
:103EC000CEDB761C042EC9DBBDE8F087C8ABB6AFED
:103ED000B5E7D7D3BCBCCAF500000000D2BABEA774
:103EE000B2E2CAD4B3CCD0F200000000D1D5C9AB45
:103EF000CCEEB3E4B2E2CAD400000000CEC4D7D600
:103F0000CFD4CABEB2E2CAD400000000CDBCC6AC59
:103F1000CFD4CABEB2E2CAD4000000003447204D5C
:103F20004F44554C452053544152542E000000003C
:103F30003400002053544D3332203447204750532F
:103F4000000000005443502F434F41502F4D515417
:103F500054000000C8ABB3CCBCBCCAF5D6A7B3D6DE
:103F600000000000436F6C6F722054657374000092
:103F700010B56FF00400FCF7B6FB2E4800682E4920
:103F8000B0FBF1F02D4908700846007800EB4001C5
:103F9000C1EBC0104FF6FF7101EAC000284908804C
:103FA00010BD0146254A12784A434FF0E0235A617A
:103FB00000229A611A46126942F001021A6100BF9A
:103FC0004FF0E022106900F001021AB100F48032D3
:103FD000002AF5D04FF0E022126922F001024FF0E2
:103FE000E0231A6100229A6170470146144A128840
:103FF0004A434FF0E0235A6100229A611A4612693F
:1040000042F001021A6100BF4FF0E022106900F097
:1040100001021AB100F48032002AF5D04FF0E022FC
:10402000126922F001024FF0E0231A6100229A6126
:10403000704700000000002000127A003E000020BF
:104040004000002010B54FF4A060FCF7FDFA10BD51
:10405000014600BF704700BFFE4A128802F04002CE
:10406000002AF9D0C2B2FB4B1B1D1A80704710B555
:10407000044600BF8021F748FEF78AFAF64909682E
:104080008842F7D02146F348FEF714FA10BD10B568
:10409000044600BF8021F148FEF77AFAEE4909682C
:1040A0008842F7D02146ED48FEF704FA10BD10B55E
:1040B000044600BF8021EA48FEF76AFAE64909682B
:1040C0008842F7D02146E648FEF7F4F910BD10B556
:1040D00086B00446012144F20400FDF73DF9DD48B5
:1040E000FEF7ACF84FF40070ADF8140003208DF823
:1040F000160018208DF8170005A9DA48FCF750FEC5
:104100004FF48060ADF8140048208DF8170005A921
:10411000D448FCF745FE25208DF8000003208DF8DB
:1041200001008DF8020001208DF803006846FCF7BD
:1041300090FA01940020ADF80800ADF80A00ADF83F
:104140000C00ADF810000C20ADF80E0001A9C1481C
:10415000FEF7B7F8012240F22441BE48FEF749F9C4
:10416000012240F22551BB48FEF743F90121B9482D
:10417000FEF733F906B010BD10B586B00446012134
:104180000420FDF7E9F801214804FDF7F2F8B348EF
:10419000FEF754F80420ADF8140003208DF8160043
:1041A00018208DF8170005A9AE48FCF7F9FD082086
:1041B000ADF8140004208DF8170005A9A948FCF7F4
:1041C000EFFD26208DF8000000208DF80100012071
:1041D0008DF802008DF803006846FCF73AFA019466
:1041E0000020ADF80800ADF80A00ADF80C00ADF8FD
:1041F00010000C20ADF80E0001A99848FEF761F8F8
:10420000012240F225519548FEF7F3F80121934829
:10421000FEF7E3F806B010BD10B586B004460121E4
:104220000820FDF799F801218804FDF7A2F88C48D1
:10423000FEF704F84FF48060ADF8140003208DF809
:10424000160018208DF8170005A98748FCF7A8FD6F
:104250004FF40060ADF8140004208DF8170005A994
:104260008148FCF79DFD27208DF8000000208DF887
:10427000010001208DF802008DF803006846FCF76C
:10428000E8F901940020ADF80800ADF80A00ADF897
:104290000C00ADF810000C20ADF80E0001A970481C
:1042A000FEF70FF8012240F225516D48FEF7A1F804
:1042B00001216B48FEF791F806B010BD0BE000BF7E
:1042C0006449098801F040010029F9D00178614A68
:1042D000121D1180401C01780029F0D1704710B5E3
:1042E00004460BE000BF5D48008800F04000002855
:1042F000F9D020785949091D0880641C20780028CD
:10430000F0D1FEF72FFA10BD0BE000BF5449098829
:1043100001F040010029F9D00178514A121D1180A5
:10432000401C01780029F0D1704710B500204F499A
:10433000C1F804014FF480714C4800F02FFAFEF7E9
:1043400011FA10BD4949D1F80411FF2904D90021FF
:10435000464AC2F804110AE04449D1F80421D1F8D0
:104360000411491C414BC3F8041119468854704785
:1043700010B500BF40F225513648FEF71FF9364907
:104380000968884206D03348FEF798F8C4B2204640
:10439000FFF7D8FF40F224412E48FEF70FF92E49CF
:1043A0000968884203D02B48FEF788F8C4B210BDD4
:1043B0002F49D1F80411FF2904D900212C4AC2F851
:1043C00004110AE02A49D1F80421D1F80411491C4A
:1043D000274BC3F8041119468854704710B540F2B2
:1043E00025511E48FEF7EAF801280BD11B48FEF7BD
:1043F00065F8C4B22046FFF7DBFF40F225511748AD
:10440000FEF706F908211548FEF7C2F801280AD17F
:104410001248FEF753F8C4B22046FFF7C9FF08213F
:104420000E48FEF7C2F810BD10B540F225510C48F9
:10443000FEF7C4F808490968884221D00848FEF709
:104440003DF8C1B20B48D0F80421D0F80401401C5B
:10445000084B11E00038014098012242004400401E
:104460000048004000080140000C0140BC01002051
:10447000C4020020CC030020C3F804011846815474
:1044800010BD70470FB4044910B503AA029800F09C
:104490008BFA10BC5DF814FB440000200FB40449F3
:1044A00010B503AA029800F07FFA10BC5DF814FB67
:1044B000440000200FB41CB5084B06AA7B44694693
:1044C0000090059800F041FA04460020694600F08B
:1044D0004FFA20461CBC5DF814FB0000B10400003C
:1044E00070B50C460546012A05D02878800600D50F
:1044F000EA69002302E0012305E05B1C934202D23B
:10450000E05C0028F9D1A869E618C01AA861286AF9
:1045100018442862284600F06CF904E0D5E901212E
:1045200014F8010B9047B442F8D3284600F077F90D
:1045300070BD00002DE9F041064600241068752981
:10454000314616A510D000F07BF9002802DA40426F
:1045500013A507E031688A0701D512A502E04907D3
:1045600004D511A5012401E000F073F900210A220D
:1045700006F1240709E0B0FBF2FCB0FBF2F302FB0A
:104580001C00303078541846491C0028F3D12346CB
:104590002A463046BDE8F04100F064B90000000052
:1045A0002D0000002B000000200000002DE9F05F2E
:1045B000894604464FF0000ADFF874B1FB44C0F8A6
:1045C00020A02046E1688847002874D0252806D01E
:1045D000D4E901219047206A401C2062F1E70026BF
:1045E0005F462046E16888472028054607DB312DD5
:1045F00005D2781910F8200C08B10643F1E7B0078E
:1046000001D526F00406C4F81CA00027C4F818A0A1
:104610002A2D09D0284601F07CFA38B304EB87082C
:10462000303DC8F8185019E059F8041B204604EB37
:1046300087029161E1688847012F054618D1E0693A
:10464000002820DA26F020061DE0D8F8180000EB3C
:10465000800005EB40003038C8F818002046E168BB
:104660008847054601F055FA0028EED1012F0AD0FF
:104670002E2D08D12046E16888477F1C0546022F71
:1046800046F02006C4DBA069002803DA404246F069
:104690000106A061F00701D026F010066C2D0BD0AA
:1046A000682D09D04C2D39D06A2D35D0742D35D0D8
:1046B0007A2D33D016E038E0E1682F46204688474F
:1046C000B842054609D16C2F26D04FF48060E168CE
:1046D000064320468847054604E06C2F1AD04FF465
:1046E000807006430DB3A5F14100192802D820358A
:1046F00046F400664A462946204626604E46FBF7A9
:1047000051FD80B101280BD0F61D26F0070000F105
:10471000080956E74020E4E78020D8E70020D6E7E4
:1047200006F104094DE7284652E7206ABDE8F09FEC
:10473000143C000030B505460B462A4613F8014BE1
:1047400012F8010B08B1A042F8D01CB1002802D029
:104750006D1CF1E7284630BD4FF000020429C0F07F
:10476000128010F0030C00F01B80CCF1040CBCF1A3
:10477000020F18BF00F8012BA8BF20F8022BA1EBF5
:104780000C0100F00DB85FEAC17C24BF00F8012BDA
:1047900000F8012B48BF00F8012B70474FF00002D2
:1047A00000B5134694469646203922BFA0E80C5027
:1047B000A0E80C50B1F12001BFF4F7AF090728BF02
:1047C000A0E80C5048BF0CC05DF804EB890028BF7E
:1047D00040F8042B08BF704748BF20F8022B11F0A7
:1047E000804F18BF00F8012B704770477047704723
:1047F000704770B5044685690068C10601D530264A
:1048000000E02026C00707D070BDD4E90121304662
:104810009047206A401C20626D1EF6D570BD70B5B1
:10482000044685690078C00707D170BDD4E901212D
:1048300020209047206A401C20626D1EF6D570BD76
:1048400009684A0501D540B27047C905FCD500B2D8
:10485000704709684A0501D5C0B27047C905FCD543
:1048600080B270472DE9F0470D46994692460446BE
:1048700000F124080168880604D5E06921F01001E0
:10488000216000E00120A84201DD471B00E0002775
:10489000A1697A1902EB0900081AA0612078C00604
:1048A00002D42046FFF7A5FF002608E0D4E9012145
:1048B0001AF806009047206A401C761C20624E457C
:1048C000F4DB2078C0060AD52046FFF792FF06E009
:1048D000D4E9012130209047206A401C2062381E14
:1048E000A7F10107F4DC07E0D4E9012118F805007D
:1048F0009047206A401C2062281EA5F10105F3DCC8
:104900002046FFF78CFF2078000602D50220BDE884
:10491000F0870120FBE711680268006A530501D5A2
:1049200008700AE0D30501D5088006E0130603D518
:10493000C217C1E9000200E00860012070470000D2
:1049400001694A1C02610878704700B58FB0CDE953
:1049500001310021059105497944CDE90310114643
:104960006846FFF723FE0FB000BD0000E5FFFFFF24
:104970000A6802F8010B0A60704710B5436913B169
:10498000AFF3008001E0FFF7ABFD012010BD12780E
:1049900000F124010A7000224A700122EDE711683B
:1049A0004FF0FF32E9E70000074B70B50D467B443E
:1049B000FFF7CBFF0446284600F08EFB10B14FF006
:1049C000FF3070BD204670BDA5F6FFFF2DE9FF5FEB
:1049D00015468A460446DFF8AC80F8440027D8E93B
:1049E00000103E46CDE9001010E03AF816106A4675
:1049F00002A800F075FB411C07D02178890603D579
:104A0000E269391891420DD80744761C2078800657
:104A100002D5E069B84205DDAE42E6DB3AF81600A1
:104A20000028E2D1A069C01BA0612046FFF7E1FE8B
:104A3000D8E90010CDE90010002017E03AF818106E
:104A40006A4602A800F04CFBB0F1FF3F81460BD054
:104A500000250DF1080B05E0D4E901211BF8050044
:104A600090476D1C4D45F7D308F10100B0428046D8
:104A7000E4DB206A384420622046FFF7D0FEBDE820
:104A8000FF9F00000A3800002DE9F0418046D21D4A
:104A900022F007020025D2E90002F52915A614D05C
:104AA000011E72F1000106DA0023D0EB030063EB74
:104AB000020211A608E0D8F800108B0701D50FA656
:104AC00002E0490701D50EA601251146002408F190
:104AD000240704E000F098F830323A55641C50EA9C
:104AE0000102F7D12B46324621464046BDE8F0414F
:104AF000FFF7B8BE000000002D0000002B000000F2
:104B00002000000030B4002100F1240408E002F08D
:104B10000705D208303542EA4372DB086554491C68
:104B200052EA0305F3D10468002310A2250708D533
:104B300004F020040C4304D0C46901230CA2641EB9
:104B4000C46130BCFFF78EBE10B504462146106824
:104B5000FFF77FFE02462046BDE810400023D1E764
:104B6000D21D22F00701D1E90023CBE700000000AD
:104B700030000000F0B40D460188090502D5214C33
:104B80007C4402E01F4C7C440E34002100F12406DA
:104B900008E002F00F071209E75D42EA03721B0901
:104BA0007754491C52EA0307F3D102780023120715
:104BB00004D5702D06D009B1022311342246F0BC71
:104BC000FFF750BE01231034F8E770B504460D46D8
:104BD00021461068FFF73DFE024629462046BDE803
:104BE00070400023C6E7D21D22F00703D3E900235B
:104BF000C0E70368126843F0200303600823C36121
:104C00000023B7E76C36000030B5B0F10A024FEA76
:104C1000900E71F100034EEA817EB0EB0E0061EB65
:104C200091014FEA101E4EEA017E10EB0E0041EB9F
:104C300011114FEA102E4EEA016E10EB0E0041EBFF
:104C400011214FEA104E4EEA014E10EB0E0041EBDF
:104C50001141401841F100014FEAD00040EA417093
:104C60004FEAD10110EB80054FEA810444EA9074C9
:104C700044EB01046D1944EB0404521BA3414FF0B3
:104C8000000348BF0A3200D530BD401C41F100018D
:104C900030BD70472DE9FF4F0C461E464FF0FF37E1
:104CA0008BB0D2E90001DDF860800A908A46C1F33A
:104CB0000A5505B93D46002108464FF00000BAF1FB
:104CC000000F00F4400005DA00EB80004FF44001D3
:104CD00001EA50004FEA9059B9F1010F00DDB946E1
:104CE0000A9850EA4A000ED044F61050A5F2FF355B
:104CF00045432F14B8F1000F1ED07542291E1EDD4A
:104D0000C9F100021CE0B8F1010F4FF0000001D022
:104D1000302103E0F24305E02154401CB042FBDBAC
:104D200030460022002121540B99C1F80880C1E9C6
:104D300000200FB0BDE8F08FBD1B6D1CDEE74A46BA
:104D400000DA694206A800F05DFA06AB93E80700B6
:104D500003AB83E8070050460A9900F00BFB8DE88F
:104D60000700A0F500501F3800900398002D09DDC2
:104D700042F21F014A46084403A90390684600F026
:104D80006AFD08E0A0F500504A461F3803A90390C9
:104D9000684600F074FD8DE807000004000C03D0A5
:104DA0004FF0FF30410800E01046B8F1000F03D08B
:104DB0000022009215461EE0751E05D4FFF724FF61
:104DC000303262556D1EF9D5B3460122084302D038
:104DD00000227F1C04E02078302801D100227F1EB1
:104DE000002A099786D01DE0112D07DAFFF70CFF86
:104DF000303262556D1C50EA0102F5D1084302D0F1
:104E00000098C8B10EE00021681E05E0235C625CDA
:104E100063542254401E491C8142F7DBAB46A81B59
:104E2000401E0990002004F80B000B98099AC0F866
:104E30000880C0E9002B7CE711264FF0000859E7F5
:104E40002DE9F04F88460446D21D22F0070191B0AB
:104E5000D1E90001CDE90A0100F047FE02460B98B6
:104E6000C00F01D02D2007E02068810701D52B203D
:104E700002E0202101EAC000032A099001D0072A9C
:104E800005DB03464146204600F07CF90BE1207823
:104E9000800601D5E06900E00620B8F1650F814683
:104EA00006D0B8F1660F18D0B8F1670F70D131E0B5
:104EB0000020B9F1110F009001DB112301E009F18D
:104EC00001030AAA01A90CA8FFF7E4FEDDE90C70B2
:104ED000002609F10105834647E001204B4600907A
:104EE0004FF000470AAA01A90CA8FFF7D3FEDDE99D
:104EF0000DB00C995D46002610B909F101000D189E
:104F0000B9EB050003D4C0F1FF3609F10105A5EBAB
:104F100009002BE0B9F1010F01DA4FF0010900207F
:104F2000B9F1110F0090484601DD112300E003465E
:104F30000AAA01A90CA8FFF7ADFEDDE90C704D46E9
:104F400000268346207800070AD4AB4500DA5D4688
:104F500001A8012D04DD411911F8011C302907D0E9
:104F60004F4502DA17F1040F04DA012082460FE000
:104F70006D1EEEE7002F02DCED1B3E4403E0781CC3
:104F8000A84200DD7D1CB81B00F1010A4FF000476C
:104F90002078000703D4AA4501DB4FF0FF3A002137
:104FA000B7F1004F0DF143088DF8431024D00220D3
:104FB0002B23002F01DA7F422D230A21021EA0F1AC
:104FC000010000DC5FB197FBF1FC97FBF1F201FB04
:104FD0001C7C17460CF1300C08F801CDEEE7A8F167
:104FE000010003702188090501D5452100E06521F4
:104FF000A0F1010800F8011C09980FA9A1EB08070E
:10500000FF1D00B10120411901EBEA70A16938448C
:10501000081A401EA0612078C00602D42046FFF77F
:10502000E8FB099828B1D4E901219047206A401C87
:1050300020622078C00622D52046FFF7DAFB1EE06A
:10504000002E04DBB34502DD01A8805D00E03020C6
:10505000D4E901219047206A401C2062761CAAF105
:1050600001005FEA000A0AD100F088F8C068016810
:10507000405CD4E901219047206A401C2062281E30
:10508000A5F10105DCDC07E0D4E9012118F8010BEA
:105090009047206A401C2062381EA7F10107F3DC0C
:1050A0002046FFF7BCFB032011B043E610B543696F
:1050B00013B1AFF3008001E0FFF788FC012010BDC1
:1050C000128800F1240182840022C2840122EDE7CB
:1050D00011684FF0FF32E9E7007B00F08000704775
:1050E00070B516460C46054600F040F8036893F884
:1050F0000101012806D0FF2C0FD8185D68B10120EE
:105100002C7070BDD3F807013246214603F2071315
:1051100003442846BDE8704018474FF0FF3070BD8B
:10512000754600F0E3F8AE4605006946534620F0A8
:105130000700854618B020B5FDF792FABDE820407B
:105140004FF000064FF000074FF000084FF0000B43
:1051500021F00701AC46ACE8C009ACE8C009ACE8F6
:10516000C009ACE8C0098D467047000010B500F0DA
:1051700005F8001D10BD00BFD509000000487047AC
:10518000F40400202DE9F0411F460446032601687F
:10519000072A01F4006004DB08B116A505E016A596
:1051A00003E008B115A500E015A521F0100020606E
:1051B000A069C01EA0610FB1401EA0612046FFF78C
:1051C00018FB4FB1D4E9012138469047206A401CB2
:1051D0002062C01C206206E0206AFAE7D4E90121BF
:1051E00015F8010B9047761EF8D22046FFF717FB03
:1051F000BDE8F0814E414E006E616E00494E4600A2
:10520000696E66002DE9F047814616468AB033483C
:1052100078440DC88DE80D0030487844801C03ACFC
:105220000DC884E80D0041F69B300844372190FBFF
:10523000F1F290FBF1F5A5F1800501FB12041B3C96
:1052400002D56442012000E00020DFF890A08046F3
:105250000027FA44AAF1BE0A0DE0E00709D0324661
:10526000684607EB47010AEB810100F008FB8DE877
:10527000070064107F1C002CEFD1184F7F44AC3F17
:1052800018E0E80714D007EB04100DF1180A90E8B5
:105290000E008AE80E00C068F04201D1981908900B
:1052A000324606A903A800F0EAFA03AB83E8070038
:1052B0006D10641C002DE4D132466946B8F1000F30
:1052C00003A802D000F0C7FA01E000F0D8FAC9E95B
:1052D0000001C9F808200AB0BDE8F087803000005E
:1052E0000446AFF300802046FAF7BFFF004870473E
:1052F000D40400204FF0013C50F8042B51F8043B3B
:105300009A4221D1A2EB0C03934313EACC1317D199
:1053100050F8042B51F8043B9A4215D1A2EB0C0330
:10532000934313EACC130BD150F8042B51F8043BF0
:105330009A4209D1A2EB0C03934313EACC13DBD0BE
:105340004FF00000704700BFD01A01BAB1FA81F1E6
:1053500001F0180122FA01F0CB40C1F12001DBB2CB
:10536000C0B2C01A2CFA01F3D11A914311EAC31149
:10537000E6D170475FEA400C08BF91F0000F4FEA9A
:105380008C234FEAC12243EA51514FEA1C5018BF07
:1053900000F5F0404FEA300018BF41F000415FEAED
:1053A0006C5C00F02980BCF1FF3F08BF40F08040FA
:1053B0007047130C06BF12044FF0100C4FF0000C96
:1053C000130E04BF12020CF1080C130F04BF1201DC
:1053D0000CF1040C930F04BF92000CF1020CD30FDC
:1053E00004BF52000CF1010C11464FF00002A0F175
:1053F0001F00A0EB0C00704711F0004F08BF704772
:1054000031F000413FF4D5AF0B0C06BF09044FF05B
:10541000100C4FF0000C0B0E04BF09020CF1080C2D
:105420000B0F04BF09010CF1040C8B0F04BF8900A2
:105430000CF1020CCB0F04BF49000CF1010CCCF1B4
:105440002003A0EB0C0022FA03F302FA0CF241EA6B
:10545000030100F10100704720F07F4C80EA030057
:1054600023F07F47ACEB070303F57C5300F00040CB
:1054700003F1FF032DE980494FEA154B09B44FEAC8
:10548000144325EA0B4E24EA03480FF2042606EBE8
:10549000132749083E785FEA320203FB0667C7F527
:1054A000000707FB06F64FEA54374FEAD64606F1E7
:1054B000020607FB066CCCF1005C4FEA1C472CEAA5
:1054C000074C07FB06F40CFB06F504EB15464FEA08
:1054D000961634BF00204FF000404FEAD13706FB4C
:1054E00007FC4FEA1C4C0CFB0BF7D21B03FB0CF721
:1054F00061EB07010CFB0EF7B0EB074072EB1742B4
:105500000CFB08F734BFA2EB0742B2EB074261EB9A
:1055100017414FEA0C444FEA910706FB07FC4FEA9C
:105520001C4C0CFB0BF7B0EBC74072EB573203FB84
:105530000CF734BFA2EBC742B2EBC74261EB573165
:105540000CFB0EF7B0EBC70072EB57720CFB08F7C1
:1055500034BFA2EBC702B2EBC70261EB5771039FE6
:105560004FEA816141EA921104EBCC044FEAD13752
:105570004FEA826206FB07FC42EA90124FEA806023
:105580004FEA1C4C0CFB0BF7D21B03FB0CF761EB37
:1055900007010CFB0EF7B0EB074072EB17420CFB58
:1055A00008F734BFA2EB0742B2EB074261EB1741A9
:1055B0004FEA8C554FEA910704EB9C2406FB07FC4D
:1055C0004FEA1C4C0CFB0BF7B0EBC74072EB5732A9
:1055D00003FB0CF734BFA2EBC742B2EBC74261EB4F
:1055E00057310CFB0EF7B0EBC70072EB57720CFB98
:1055F00008F734BFA2EBC702B2EBC70261EB5771E9
:1056000015EB4C254FEA816141EA92114FEA826223
:105610004FEAD13742EA901206FB07FC44F100043E
:105620004FEA80604FEA1C4C0CFB0BF7D21B03FBCC
:105630000CF761EB07010CFB0EF7B0EB074072EBC8
:1056400017420CFB08F734BFA2EB0742B2EB07424C
:1056500061EB174115EB1C154FEA813141EA92418C
:105660004FEA823242EA90424FEA80304FEA0C76AB
:1056700044F1000448EA03434EEA0B484FF0000EA1
:10568000B2EB080C71EB030724BF624639464EEBC0
:105690000E0E4FF0000B0018524149414BEB0B0B23
:1056A000B2EB080C71EB03077BF1000B24BF6246E1
:1056B00039464EEB0E0E4FF0000B00185241494197
:1056C0004BEB0B0BB2EB080C71EB03077BF1000B00
:1056D00024BF624639464EEB0E0E51EA020718BF50
:1056E00046F0010616EB0E7655F1000254F100016A
:1056F00003D5BDE88901BDE80088BDE88901BDE8A2
:105700000048B619524141EB0101A3F10103704772
:1057100080807F7E7D7C7B7A7978777676757473EE
:10572000727171706F6E6E6D6C6C6B6A6A696868AD
:10573000676666656464636362616160605F5F5E43
:105740005E5D5D5C5C5B5B5A5A59595858575756B9
:10575000565555555454535352525251515050501E
:105760004F4F4F4E4E4D4D4D4C4C4C4B4B4B4A4A70
:105770004A494949484848474747474646464545B4
:1057800045444444444343434342424242414141ED
:10579000002B26D4770021D01CB54FEA370703B47D
:1057A0004FF010004FF010014FF000000FBCBDE8AB
:1057B00010400BF1010BBBF1010F08BF5FEA1707A7
:1057C00022BF12F1010211F101014FF0004143F13A
:1057D000000300F0004043EA00007047F9D3570887
:1057E000DAE746EA064613F1400F4FEA16461FDD98
:1057F00013F1200FDFBF16430A46002120335B421E
:10580000C8D0C3F1200746EA064602FA07F74FEA76
:10581000164646EA0706C3F1200722FA03F201FA08
:1058200007F721FA03F14FF0000342EA0702B1E75C
:1058300046EA020646EA06464FEA164646EA0106E8
:10584000BCBF46EA0646360C4FF000034FF000029C
:105850004FF000019EE72DE9C048934630B491E82F
:10586000380007C831EA400C48BF34EA430C03D57E
:10587000FFF7F2FDFFF78CFFF0BCBDE800882DE9D3
:10588000C048934630B491E8380007C810F0804F04
:1058900008BF13F0804F03D100F005F8FFF778FF41
:1058A000F0BCBDE8008820F07F4780EA030023F0C9
:1058B0007F4C07EB0C03A3F57C5300F00040A3F1F1
:1058C000FE0392F0000F00F0B38095F0000F00F09F
:1058D00077802DE901494FEA11404FEA144621EA49
:1058E000004800FB06FC24EA064708FB06F607FB17
:1058F00008F800FB07F718EB06484CEB164C4FEA8C
:10590000124B18EB07484FEA15464CEB174022EABA
:105910000B4E0BFB06FC25EA06470EFB06F607FBC3
:105920000EFE0BFB07F71EEB064E4CEB164C4FF032
:1059300000061EEB074E4CEB174B18EB0B0840F123
:10594000000018EB0E0B58EB000840F100008F1A16
:105950004FF000013CBFC943661B14BFB5EB040CFC
:1059600000213CBFC943F61B4FEA17444EEA8E0E96
:1059700027EA04454FEA1C4704FB07622CEA074C60
:1059800005FB07F70CFB05F604FB0CFC16EB0746C2
:1059900042EB174216EB0C4642EB1C421BEB060691
:1059A00058EB0202414146EA9E0601D5BDE8018955
:1059B000B619524141EB0101A3F10103BDE8018990
:1059C0004FEA14454FEA114724EA054621EA074CFD
:1059D00005FB07F406FB07F70CFB06F105FB0CFCC7
:1059E00011EB074144EB17444FEA124711EB0C410E
:1059F00044EB1C4422EA074C05FB07F206FB07F7C1
:105A00000CFB06F605FB0CFC16EB074642EB1742B7
:105A100016EB0C4642EB1C456A1854F1000148BFD6
:105A20007047B619524141EB0101A3F101037047E0
:105A300095F0000F37D04FEA11424FEA144721EAA0
:105A4000024624EA074C02FB07F106FB07F70CFBB2
:105A500006F402FB0CFC14EB074441EB17414FEA40
:105A6000154714EB0C4441EB1C4125EA074C02FBA3
:105A700007F506FB07F70CFB06F602FB0CFC16EB22
:105A8000074645EB174516EB0C4645EB1C42121931
:105A900051F1000148BF7047B619524141EB010175
:105AA000A3F1010370474FEA14454FEA114724EA76
:105AB000054621EA074C05FB07F106FB07F70CFB3F
:105AC00006F24FF0000605FB0CFC12EB074241EB1F
:105AD000174112EB0C4251EB1C4148BF7047921822
